:020000040800F2
:1000000000500020DD3A0008593800085B3800082D
:100010005D3800085F380008613800080000000003
:10002000000000000000000000000000633800082D
:1000300065380008000000006738000869380008CB
:10004000253B0008253B0008253B0008253B000810
:10005000253B0008253B0008253B0008253B000800
:10006000253B0008253B0008253B0008253B0008F0
:10007000253B0008253B0008253B0008C139000846
:10008000253B0008253B0008253B0008253B0008D0
:10009000253B0008253B0008253B0008253B0008C0
:1000A000253B0008253B0008253B0008253B0008B0
:1000B000253B0008253B0008253B0008253B0008A0
:1000C000253B0008253B0008253B0008253B000890
:1000D000253B0008D1390008253B0008253B0008D6
:1000E000253B0008253B0008253B000800000000D8
:1000F0000000000000000000000000000000000000
:0C01000000000000000000005FF808F1A3
:1001100010B5054C237833B9044B13B10448AFF341
:1001200000800123237010BDEC01002000000000BE
:10013000B869000808B5034B1BB103490348AFF386
:10014000008008BD00000000F0010020B869000830
:10015000034613F8012B002AFBD1181A0138704707
:1001600081F0004102E000BF83F0004330B54FEA68
:1001700041044FEA430594EA050F08BF90EA020FD5
:100180001FBF54EA000C55EA020C7FEA645C7FEA68
:10019000655C00F0E2804FEA5454D4EB5555B8BF8B
:1001A0006D420CDD2C4480EA020281EA030382EAFC
:1001B000000083EA010180EA020281EA0303362D8E
:1001C00088BF30BD11F0004F4FEA01314FF4801C61
:1001D0004CEA113102D0404261EB410113F0004F73
:1001E0004FEA03334CEA133302D0524263EB43032A
:1001F00094EA050F00F0A780A4F10104D5F1200EC8
:100200000DDB02FA0EFC22FA05F2801841F1000122
:1002100003FA0EF2801843FA05F359410EE0A5F1F6
:1002200020050EF1200E012A03FA0EFC28BF4CF027
:10023000020C43FA05F3C01851EBE37101F00045DD
:1002400007D54FF0000EDCF1000C7EEB00006EEBEA
:100250000101B1F5801F1BD3B1F5001F0CD3490874
:100260005FEA30004FEA3C0C04F101044FEA4452CB
:1002700012F5800F80F09A80BCF1004F08BF5FEA52
:10028000500C50F1000041EB045141EA050130BD32
:100290005FEA4C0C404141EB0101013C28BFB1F544
:1002A000801FE9D291F0000F04BF01460020B1FA8F
:1002B00081F308BF2033A3F10B03B3F120020CDA62
:1002C0000C3208DD02F1140CC2F10C0201FA0CF040
:1002D00021FA02F10CE002F11402D8BFC2F1200CA5
:1002E00001FA02F120FA0CFCDCBF41EA0C0190405B
:1002F000E41AA2BF01EB0451294330BD6FEA0404A4
:100300001F3C1CDA0C340EDC04F11404C4F120028E
:1003100020FA04F001FA02F340EA030021FA04F3A0
:1003200045EA030130BDC4F10C04C4F1200220FAF7
:1003300002F001FA04F340EA0300294630BD21FA35
:1003400004F0294630BD94F0000F83F4801306BFFB
:1003500081F480110134013D4EE77FEA645C18BFEF
:100360007FEA655C29D094EA050F08BF90EA020F86
:1003700005D054EA000C04BF1946104630BD91EA7E
:10038000030F1EBF0021002030BD5FEA545C05D181
:100390004000494128BF41F0004130BD14F58004C0
:1003A0003CBF01F5801130BD01F0004545F0FE4134
:1003B00041F470014FF0000030BD7FEA645C1ABF69
:1003C000194610467FEA655C1CBF0B46024650EAA0
:1003D000013406BF52EA033591EA030F41F40021CC
:1003E00030BD00BF90F0000F04BF0021704730B552
:1003F0004FF4806404F132044FF000054FF0000127
:1004000050E700BF90F0000F04BF0021704730B5E7
:100410004FF4806404F1320410F0004548BF4042BC
:100420004FF000013EE700BF42004FEAE2014FEA11
:1004300031014FEA02701FBF12F07F4393F07F4FEC
:1004400081F06051704732F07F4208BF704793F0EF
:100450007F4F04BF41F40021704730B54FF4607402
:1004600001F0004521F000411CE700BF50EA010205
:1004700008BF704730B54FF000050AE050EA0102AE
:1004800008BF704730B511F0004502D5404261EB1E
:1004900041014FF4806404F132045FEA915C3FF45F
:1004A000D8AE4FF003025FEADC0C18BF03325FEAFC
:1004B000DC0C18BF033202EBDC02C2F1200300FAAD
:1004C00003FC20FA02F001FA03FE40EA0E0021FAD2
:1004D00002F11444BDE600BF70B54FF0FF0C4CF4C0
:1004E000E06C1CEA11541DBF1CEA135594EA0C0F72
:1004F00095EA0C0F00F0DEF82C4481EA030621EAAD
:100500004C5123EA4C5350EA013518BF52EA0335E7
:1005100041F4801143F4801338D0A0FB02CE4FF099
:100520000005E1FB02E506F00042E0FB03E54FF0C9
:100530000006E1FB03569CF0000F18BF4EF0010EC1
:10054000A4F1FF04B6F5007F64F5407404D25FEABD
:100550004E0E6D4146EB060642EAC62141EA555170
:100560004FEAC52040EA5E504FEACE2EB4F1FD0CB2
:1005700088BFBCF5E06F1ED8BEF1004F08BF5FEA30
:10058000500E50F1000041EB045170BD06F00046E2
:1005900046EA010140EA020081EA0301B4EB5C048F
:1005A000C2BFD4EB0C0541EA045170BD41F4801187
:1005B0004FF0000E013C00F3AB8014F1360FDEBFAC
:1005C000002001F0004170BDC4F10004203C35DA88
:1005D0000C341BDC04F11404C4F1200500FA05F30B
:1005E00020FA04F001FA05F240EA020001F00042AC
:1005F00021F0004110EBD37021FA04F642EB060122
:100600005EEA430E08BF20EAD37070BDC4F10C044B
:10061000C4F1200500FA04F320FA05F001FA04F20F
:1006200040EA020001F0004110EBD37041F10001FB
:100630005EEA430E08BF20EAD37070BDC4F1200506
:1006400000FA05F24EEA020E20FA04F301FA05F26E
:1006500043EA020321FA04F001F0004121FA04F216
:1006600020EA020000EBD3705EEA430E08BF20EAE6
:10067000D37070BD94F0000F0FD101F00046400020
:1006800041EB010111F4801F08BF013CF7D041EAA2
:10069000060195F0000F18BF704703F000465200A6
:1006A00043EB030313F4801F08BF013DF7D043EA77
:1006B0000603704794EA0C0F0CEA135518BF95EA2D
:1006C0000C0F0CD050EA410618BF52EA4306D1D1B4
:1006D00081EA030101F000414FF0000070BD50EAD3
:1006E000410606BF1046194652EA430619D094EA5D
:1006F0000C0F02D150EA013613D195EA0C0F05D147
:1007000052EA03361CBF104619460AD181EA03019A
:1007100001F0004141F0FE4141F470014FF0000052
:1007200070BD41F0FE4141F4780170BD70B54FF0ED
:10073000FF0C4CF4E06C1CEA11541DBF1CEA13556D
:1007400094EA0C0F95EA0C0F00F0A7F8A4EB05044F
:1007500081EA030E52EA03354FEA013100F0888046
:100760004FEA03334FF0805545EA131343EA12630F
:100770004FEA022245EA111545EA10654FEA0026C4
:100780000EF000419D4208BF964244F1FD0404F57D
:10079000407402D25B084FEA3202B61A65EB0305D9
:1007A0005B084FEA32024FF480104FF4002CB6EB96
:1007B000020E75EB030E22BFB61A754640EA0C0016
:1007C0005B084FEA3202B6EB020E75EB030E22BF56
:1007D000B61A754640EA5C005B084FEA3202B6EB97
:1007E000020E75EB030E22BFB61A754640EA9C0056
:1007F0005B084FEA3202B6EB020E75EB030E22BF26
:10080000B61A754640EADC0055EA060E18D04FEAE3
:10081000051545EA16754FEA06164FEAC30343EA83
:1008200052734FEAC2025FEA1C1CC0D111F4801F50
:100830000BD141EA00014FF000004FF0004CB6E749
:1008400011F4801F04BF01430020B4F1FD0C88BFE8
:10085000BCF5E06F3FF6AFAEB5EB030C04BFB6EBF3
:10086000020C5FEA500C50F1000041EB045170BDE6
:100870000EF0004E4EEA113114EB5C04C2BFD4EB13
:100880000C0541EA045170BD41F480114FF0000E97
:10089000013C90E645EA060E8DE60CEA135594EA13
:1008A0000C0F08BF95EA0C0F3FF43BAF94EA0C0F16
:1008B0000AD150EA01347FF434AF95EA0C0F7FF48B
:1008C00025AF104619462CE795EA0C0F06D152EADF
:1008D00003353FF4FDAE1046194622E750EA4106C3
:1008E00018BF52EA43067FF4C5AE50EA41047FF4D4
:1008F0000DAF52EA43057FF4EBAE12E74FF0FF3C39
:1009000006E000BF4FF0010C02E000BF4FF0010C09
:100910004DF804CD4FEA410C7FEA6C5C4FEA430C82
:1009200018BF7FEA6C5C1BD001B050EA410C0CBFD1
:1009300052EA430C91EA030F02BF90EA020F002033
:10094000704710F1000F91EA030F58BF994208BF9A
:1009500090422CBFD8176FEAE37040F00100704757
:100960004FEA410C7FEA6C5C02D150EA013C07D1AE
:100970004FEA430C7FEA6C5CD6D152EA033CD3D0F9
:100980005DF8040B704700BF8446104662468C46F3
:100990001946634600E000BF01B5FFF7B7FF002826
:1009A00048BF10F1000F01BD4DF808EDFFF7F4FF4F
:1009B0000CBF012000205DF808FB00BF4DF808EDDA
:1009C000FFF7EAFF34BF012000205DF808FB00BFFD
:1009D0004DF808EDFFF7E0FF94BF012000205DF81F
:1009E00008FB00BF4DF808EDFFF7CEFF94BF0120D4
:1009F00000205DF808FB00BF4DF808EDFFF7C4FFCD
:100A000034BF012000205DF808FB00BF4FEA410C15
:100A10007FEA6C5C02D150EA013C0AD14FEA430CF8
:100A20007FEA6C5C02D152EA033C02D14FF0000035
:100A300070474FF0010070474FEA410212F5001273
:100A400015D211D56FF47873B3EB625212D94FEA15
:100A5000C12343F0004343EA505311F0004F23FAFF
:100A600002F018BF404270474FF00000704750EA54
:100A7000013005D111F0004008BF6FF00040704711
:100A80004FF00000704700BF80F0004002E000BF60
:100A900081F0004142001FBF5FEA410392EA030F69
:100AA0007FEA226C7FEA236C6AD04FEA1262D2EBB3
:100AB0001363C1BFD218414048404140B8BF5B42B8
:100AC000192B88BF704710F0004F40F4000020F051
:100AD0007F4018BF404211F0004F41F4000121F067
:100AE0007F4118BF494292EA030F3FD0A2F10102B1
:100AF00041FA03FC10EB0C00C3F1200301FA03F1EF
:100B000000F0004302D5494260EB4000B0F5000F11
:100B100013D3B0F1807F06D340084FEA310102F1D0
:100B20000102FE2A51D2B1F1004F40EBC25008BF82
:100B300020F0010040EA03007047490040EB00004C
:100B4000013A28BFB0F5000FEDD2B0FA80FCACF14D
:100B5000080CB2EB0C0200FA0CF0AABF00EBC2507A
:100B600052421843BCBFD0401843704792F0000F68
:100B700081F4000106BF80F400000132013BB5E7BB
:100B80004FEA41037FEA226C18BF7FEA236C21D031
:100B900092EA030F04D092F0000F08BF0846704796
:100BA00090EA010F1CBF0020704712F07F4F04D164
:100BB000400028BF40F00040704712F100723CBF77
:100BC00000F50000704700F0004343F0FE4040F4A1
:100BD000000070477FEA226216BF08467FEA23635F
:100BE0000146420206BF5FEA412390EA010F40F44A
:100BF000800070474FF0000304E000BF10F0004396
:100C000048BF40425FEA000C08BF704743F096437C
:100C100001464FF000001CE050EA010208BF704797
:100C20004FF000030AE000BF50EA010208BF70471E
:100C300011F0004302D5404261EB41015FEA010C33
:100C400002BF84460146002043F0B64308BFA3F12B
:100C50008053A3F50003BCFA8CF2083AA3EBC2530D
:100C600010DB01FA02FC634400FA02FCC2F120022C
:100C7000BCF1004F20FA02F243EB020008BF20F063
:100C80000100704702F1200201FA02FCC2F12002C9
:100C900050EA4C0021FA02F243EB020008BF20EABE
:100CA000DC7070474FF0FF0C1CEAD0521EBF1CEAEC
:100CB000D15392EA0C0F93EA0C0F6FD01A4480EADA
:100CC000010C400218BF5FEA41211ED04FF00063C3
:100CD00043EA501043EA5111A0FB01310CF00040EF
:100CE000B1F5000F3EBF490041EAD3715B0040EA15
:100CF000010062F17F02FD2A1DD8B3F1004F40EBE5
:100D0000C25008BF20F00100704790F0000F0CF0B7
:100D1000004C08BF49024CEA502040EA51207F3A7B
:100D2000C2BFD2F1FF0340EAC250704740F4000056
:100D30004FF00003013A5DDC12F1190FDCBF00F047
:100D400000407047C2F10002410021FA02F1C2F1F5
:100D5000200200FA02FC5FEA310040F1000053EA91
:100D60004C0308BF20EADC70704792F0000F00F0DF
:100D7000004C02BF400010F4000F013AF9D040EAE5
:100D80000C0093F0000F01F0004C02BF490011F479
:100D9000000F013BF9D041EA0C018FE70CEAD15377
:100DA00092EA0C0F18BF93EA0C0F0AD030F0004CF7
:100DB00018BF31F0004CD8D180EA010000F00040AB
:100DC000704790F0000F17BF90F0004F084691F069
:100DD000000F91F0004F14D092EA0C0F01D14202A3
:100DE0000FD193EA0C0F03D14B0218BF084608D16C
:100DF00080EA010000F0004040F0FE4040F40000B6
:100E0000704740F0FE4040F4400070474FF0FF0C48
:100E10001CEAD0521EBF1CEAD15392EA0C0F93EA8F
:100E20000C0F69D0A2EB030280EA010C49024FEAE1
:100E3000402037D04FF0805343EA111143EA10139A
:100E40000CF000408B4238BF5B0042F17D024FF452
:100E5000000C8B4224BF5B1A40EA0C00B3EB510F2D
:100E600024BFA3EB510340EA5C00B3EB910F24BF16
:100E7000A3EB910340EA9C00B3EBD10F24BFA3EB9B
:100E8000D10340EADC001B0118BF5FEA1C1CE0D163
:100E9000FD2A3FF650AF8B4240EBC25008BF20F016
:100EA000010070470CF0004C4CEA50207F32C2BF6A
:100EB000D2F1FF0340EAC250704740F400004FF007
:100EC0000003013A37E792F0000F00F0004C02BF38
:100ED000400010F4000F013AF9D040EA0C0093F002
:100EE000000F01F0004C02BF490011F4000F013B5C
:100EF000F9D041EA0C0195E70CEAD15392EA0C0FC4
:100F000008D142027FF47DAF93EA0C0F7FF470AFFB
:100F1000084676E793EA0C0F04D14B023FF44CAF3E
:100F200008466EE730F0004C18BF31F0004CCAD1D3
:100F300030F000427FF45CAF31F000437FF43CAF0F
:100F40005FE700BF4FF0FF3C06E000BF4FF0010C31
:100F500002E000BF4FF0010C4DF804CD4FEA400213
:100F60004FEA41037FEA226C18BF7FEA236C11D05D
:100F700001B052EA530C18BF90EA010F58BFB2EB10
:100F8000030088BFC81738BF6FEAE17018BF40F090
:100F9000010070477FEA226C02D15FEA402C05D144
:100FA0007FEA236CE4D15FEA412CE1D05DF8040BC9
:100FB000704700BF844608466146FFE70FB5FFF75C
:100FC000C9FF002848BF10F1000F0FBD4DF808ED14
:100FD000FFF7F4FF0CBF012000205DF808FB00BF05
:100FE0004DF808EDFFF7EAFF34BF012000205DF85F
:100FF00008FB00BF4DF808EDFFF7E0FF94BF0120AC
:1010000000205DF808FB00BF4DF808EDFFF7D2FFA8
:1010100094BF012000205DF808FB00BF4DF808EDEB
:10102000FFF7C8FF34BF012000205DF808FB00BFB8
:1010300010B504460E4B1A784FF47A73B3FBF2F3F3
:101040000C4A1068B0FBF3F000F0B2F868B90F2C4E
:1010500001D901200AE0002221464FF0FF3000F0C4
:1010600089F8034B5C60002000E0012010BD00BF48
:10107000000000202000002008B5074A136843F054
:1010800010031360032000F063F80020FFF7D0FF87
:1010900002F026FB002008BD00200240034A116830
:1010A000034B1B780B441360704700BF08020020FD
:1010B00000000020014B1868704700BF08020020A4
:1010C00038B50446FFF7F6FF0546B4F1FF3F02D0FE
:1010D000044B1B781C44FFF7EDFF401BA042FAD3E2
:1010E00038BD00BF00000020002808DB0901C9B29C
:1010F00000F1604000F5614080F80013704700F097
:101100000F000901C9B2014B1954704714ED00E0FA
:1011100000B500F00700C0F1070CBCF1040F28BFB8
:101120004FF0040C031D062B0FD9C31E4FF0FF3EDA
:101130000EFA0CF021EA000199400EFA03FE22EAB1
:101140000E0241EA02005DF804FB0023EEE7000016
:10115000074AD36823F4E0631B041B0C000200F46D
:10116000E060034343F0BF6343F40033D360704750
:1011700000ED00E010B50446054BD868C0F302202E
:10118000FFF7C6FF01462046FFF7AEFF10BD00BFC8
:1011900000ED00E0002807DB00F01F0240090123FA
:1011A0009340024A42F82030704700BF00E100E05F
:1011B0000138B0F1807F0BD24FF0E0235861054A2F
:1011C000F02182F823100020986107221A617047ED
:1011D0000120704700ED00E060B310B402460168E2
:1011E000154B0B441548A0FB03031B099B0013641C
:1011F000134BD363022382F82130086820F47F5018
:1012000020F03000536894682343D4682343146962
:1012100023435469234394692343D46923430343F9
:101220000B6000209063012382F8213082F82000B7
:1012300010BC704701207047F8FFFDBFCDCCCCCC6F
:1012400000000240034690F82120D2B2022A06D0C4
:1012500004228263002280F8202001207047016868
:101260000A6822F00E020A6001680A6822F0010290
:101270000A60026CC06B012101FA02F2426083F83D
:101280002110002083F820007047000008B590F876
:101290002130DBB2022B03D004238363012008BD7D
:1012A0000268136823F00E0313600268136823F0CA
:1012B000010313600368194A934214D01432934215
:1012C0001FD0143293421ED0143293421ED01432D7
:1012D00093421ED01432934202D04FF0807203E04A
:1012E0004FF4801200E001220D4B5A60012380F878
:1012F0002130002380F82030436B6BB198470020E9
:10130000CDE71022F0E74FF48072EDE74FF4805202
:10131000EAE74FF48032E7E70020C0E70800024028
:101320000000024038B5C36B1A6804682568016C78
:1013300004238B40134235D015F0040F32D02368BC
:1013400013F0200F03D1236823F004032360036804
:10135000434A934214D01432934218D01432934229
:1013600017D01432934217D01432934217D014324C
:10137000934202D04FF0806203E04FF4800200E01D
:101380000422384B5A60C36A03B1984738BD4022E3
:10139000F7E74FF48062F4E74FF48042F1E74FF44F
:1013A0008022EEE702238B4013423CD015F0020F5F
:1013B00039D0236813F0200F06D1236823F00A03E5
:1013C0002360012380F821300368254A934214D01A
:1013D000143293421CD0143293421BD014329342E5
:1013E0001BD0143293421BD01432934202D04FF0E0
:1013F000007203E04FF4001200E00222194B5A6021
:10140000002380F82030836A002BBFD09847BDE7C7
:101410002022F3E74FF40072F0E74FF40052EDE7BB
:101420004FF40032EAE708238B401342AED015F0A8
:10143000080FABD0236823F00E032360026CC16B4E
:10144000012303FA02F24A60836380F8213000230B
:1014500080F82030036B002B98D0984796E700BFA8
:10146000080002400000024070B582B00024A4468B
:10147000A2E07E4DAB4210D007D97D4DAB420CD0DF
:1014800005F58035AB4208D013E0A5F58015AB42D9
:1014900003D005F57025AB4207D18B68002B55D0E2
:1014A000012B4ED04261082403E0A5F58015AB4224
:1014B000F3D0BEF1FF0F4BD806464FEA8C023368DB
:1014C0000F25954023EA050304FA02F21343336023
:1014D0004B6813F0805F6DD0664B9A6942F0010251
:1014E0009A619B6903F001030193019B4FEA9C02FF
:1014F000951C614B53F825600CF00305AD000F23DC
:10150000AB4026EA03065D4B984228D003F5806382
:10151000984200F08D8003F58063984200F08A8045
:1015200003F58063984218D0042319E0CC68C0E723
:10153000CC680434BDE7CC680834BAE7CC680C3416
:10154000B7E702610824B4E70024B2E70424B0E757
:10155000061DACF108029200B1E7032300E000236E
:10156000AB4033430232444D45F822304B6813F40C
:10157000801F61D0424A936843EA0E0393604B6830
:1015800013F4001F5ED03E4AD36843EA0E03D360D3
:101590004B6813F4003F5BD0394A536843EA0E03AB
:1015A00053604B6813F4803F58D0354A136843EAC0
:1015B0000E0313600CF1010C0B6833FA0CF253D0DC
:1015C000012202FA0CF203EA020E32EA0303F1D11D
:1015D0004B68122B3FF64DAF122B3FF66AAF01A5B9
:1015E00055F823F09B1400082D1500083715000846
:1015F00049150008B3140008B3140008B314000818
:10160000B3140008B3140008B3140008B31400089E
:10161000B3140008B3140008B3140008B31400088E
:10162000B3140008B3140008311500083D15000874
:10163000012395E7022393E7114A936823EA0E03F7
:1016400093609CE70E4AD36823EA0E03D3609FE7BA
:101650000B4A536823EA0E035360A2E7084A136853
:1016600023EA0E031360A5E702B070BD000022104C
:10167000000031100010024000000140000801404D
:10168000000401408368194201D001207047002006
:1016900070470AB101617047090401617047C3686E
:1016A00001EA030221EA030141EA024101617047B4
:1016B00003685A6912F4806F01D1002070476FF4FB
:1016C00080625A6100230363202280F83D2080F865
:1016D0003E30026C42F00402026480F83C3001208B
:1016E00070472DE9F04106460C46174698463BE008
:1016F000FFF7E0FC069BC01A404502D8B8F1000F86
:1017000032D1012D18D033689B6924EA03039BB2C0
:10171000B3FA83F35B099F4226D10023336320226F
:1017200086F83D2086F83E30326C42F0200232646A
:1017300086F83C30012027E033685B6924EA030324
:101740009BB2B3FA83F35B09E5E733685B6924EA8C
:10175000030C1FFA8CFCBCFA8CFC4FEA5C1C67453E
:1017600011D1B8F1FF3FC3D1C4F30745012DECD02F
:1017700033689B6924EA030C1FFA8CFCBCFA8CFCCE
:101780004FEA5C1CEBE70020BDE8F0812DE9F8434F
:1017900005460E469046994653E01A6842F4007298
:1017A0001A602B686FF480625A6100232B63202239
:1017B00085F83D2085F83E302A6C42F004022A6408
:1017C00085F83C3001204AE0FFF774FCA0EB0900EB
:1017D000404502D8B8F1000F33D1012F17D02B6844
:1017E0009B6926EA03039BB2003B18BF012343B366
:1017F00000232B63202285F83D2085F83E302A6C9B
:1018000042F020022A6485F83C30012027E02B6852
:101810005B6926EA03039BB2003B18BF0123E6E79E
:101820002B689C6926EA0404A4B2003C18BF01247A
:10183000A4B12B685A6912F4806FAED1B8F1FF3FA2
:10184000C2D1C6F30747012FEAD12B685C6926EAAB
:101850000404A4B2003C18BF0124E9E70020BDE85D
:10186000F8830000F0B583B004460D4616461F46C7
:10187000C36A082B0DD0012B0BD013F5803F08D085
:10188000036B122B0AD10268136843F48073136050
:1018900004E02268136843F48073136000973346B2
:1018A00000224FF001112046FFF71BFF80B923698A
:1018B000B3F5804F16D1236805F0FE051D613B4648
:1018C000324613492046FFF761FFF8B903B0F0BD77
:1018D00023681B6813F4807F02D04FF400732364E5
:1018E0000320F3E7EB11226803F0060343F0F00353
:1018F00013613B46324607492046FFF747FF18B9B8
:101900002368EDB21D61DAE70120DFE70120DDE7A2
:10191000020001000800010070B504460D4616469D
:1019200023685B6913F0800F21D12046FFF7C0FECA
:10193000F8B9B5F1FF3FF3D0FFF7BCFB801BA8421D
:1019400001D8002DECD123685B6913F0800FE7D13B
:1019500000232363202284F83D2084F83E30226C4B
:1019600042F02002226484F83C30012000E0002094
:1019700070BD0120FCE770B504460D46164623688D
:101980005B6913F0040F21D12046FFF791FEF8B9EF
:10199000B5F1FF3FF3D0FFF78DFB801BA84201D8C4
:1019A000002DECD123685B6913F0040FE7D100230D
:1019B0002363202284F83D2084F83E30226C42F0DC
:1019C0002002226484F83C30012000E0002070BD39
:1019D0000120FCE7002800F0CC8070B5044690F8A8
:1019E0003D30002B77D0242384F83D3022681368E3
:1019F00023F0010313602268136843F4004313606B
:101A00002268136823F40043136000F049FD626804
:101A10005A4B9A4264D85A4B98428CBF00230123F8
:101A2000002B40F0A8805749A1FB00318B0C2568A2
:101A30006A6822F03F0242EA91426A6021680A6ABB
:101A400022F03F0266684D4DAE424FD8013313433A
:101A50000B622168CA6922F44F4222F0FF026568D6
:101A6000464B9D424CD8431E6D00B3FBF5F301334A
:101A700040F6FC70034278D0C3F30B031A43CA61EB
:101A800021680B6823F0C003E269206A0243134314
:101A90000B6021688B6823F4034323F0FF03226962
:101AA000E068024313438B602168CB6823F0FF0397
:101AB0006269A06902431343CB602268136843F054
:101AC0000103136000202064202384F83D3020634C
:101AD00084F83E0070BD80F83C3001F023FE82E7C0
:101AE000294B98428CBF0023012399E74FF4967548
:101AF00005FB03F3254DA5FB03539B090133A6E723
:101B0000A668BEB9431E05EB450CB3FBFCF30133DD
:101B1000C3F30B03B3FA83F35B0943BBC6B9431E9C
:101B200005EB4505B3FBF5F30133C3F30B0343F4B6
:101B30000043A3E7431E05EB850C0CEB8C0CB3FBB9
:101B4000FCF30133C3F30B03B3FA83F35B09E4E75C
:101B5000431E05EB850505EB8505B3FBF5F3013366
:101B6000C3F30B0343F4404388E7042386E70123D0
:101B700084E7012070470120ACE700BFA086010088
:101B80007F841E0083DE1B43FF083D00D34D62109F
:101B90002DE9F04385B004460F46914698460C9EC9
:101BA000FFF788FA054694F83D00C0B2202804D01B
:101BB0000227384605B0BDE8F083009519230122BD
:101BC0004F492046FFF78DFD002840F0928094F8A1
:101BD0003C30012B00F08F80012384F83C302368D7
:101BE0001A6812F0010F03D11A6842F001021A605C
:101BF0002268136823F400631360212384F83D30C6
:101C0000102384F83E3000232364C4F82490A4F801
:101C10002A80638D23853B4BE3622B46324639464F
:101C20002046FFF71FFE0746002866D100230393D6
:101C300023685A6903929B690393039B11E0236C09
:101C4000042B01D00127B4E72268136843F4007322
:101C50001360F7E72A4631462046FFF78CFE00283E
:101C60002ED1238D002B36D02A4631462046FFF751
:101C700053FE0028E3D1626A236812781A61606A11
:101C8000431C6362618D89B2013989B26185238DFC
:101C9000013B9BB223852268516911F0040FD9D012
:101CA000002BD7D043781361636A01336362638D7D
:101CB0009BB2013B9BB26385238D013B2385C9E722
:101CC000236C042B01D0012773E72268136843F4C7
:101CD00000731360F7E72268136843F4007313601E
:101CE000202384F83D30002384F83E3084F83C30D3
:101CF0005FE702275DE702275BE7012759E700BF9F
:101D0000020010000000FFFF2DE9F04385B00446FB
:101D1000884691461D46FFF7CDF994F83D30DBB279
:101D2000202B03D0022005B0BDE8F08306460090CA
:101D30001923012257492046FFF7D3FC002840F021
:101D4000A08094F83C30012B00F09D80012384F8A2
:101D50003C3023681A6812F0010F03D11A6842F070
:101D600001021A602268136823F4006313602423BD
:101D700084F83D3000272764474BE36240E0236846
:101D80001B6813F4807F02D04FF400732364032098
:101D9000C9E7A02384F83D3022685369C3F34003A8
:101DA0005269C2F3802294F83DC05FFA8CFCBCF10A
:101DB000A00F09D043B93AB9FFF77CF9801BA842BC
:101DC000E7D8002DE8D1E4E7202384F83D302368EC
:101DD0005A6912F0020F31D11A6842F400721A6087
:101DE00023686FF480625A61009619230122294901
:101DF0002046FFF776FC002849D101374F4538D2FD
:101E00002268136843F48073136000962B46002207
:101E10004FF001112046FFF764FC0028AFD1236882
:101E200008F0FE021A61FFF745F906462268536979
:101E3000C3F340035269C2F38022B4E71A6842F444
:101E400000721A600023039323685A6903929B6906
:101E50000393039B0096192301220E492046FFF7A6
:101E600040FC90B9202384F83D30002384F83C30B6
:101E700059E7202384F83D30002384F83C300120CA
:101E800051E702204FE702204DE701204BE70120F8
:101E900049E700BF020010000000FFFF82B0084BBE
:101EA0001B68084AA2FB03235B0A00FB03F30193B0
:101EB00000BF019B5A1E0192002BF9D102B070475E
:101EC00020000020D34D6210002800F0F18170B591
:101ED00082B00446036813F0010F2CD0994B5B6865
:101EE00003F00C03042B1DD0964B5B6803F00C032E
:101EF000082B12D06368B3F5803F41D0002B55D139
:101F000003F1804303F504331A6822F480321A6027
:101F10001A6822F480221A6037E08A4B5B6813F457
:101F2000803FE7D0874B1B6813F4003F03D0636802
:101F3000002B00F0BF81236813F0020F75D0814B96
:101F40005B6813F00C0F5FD07E4B5B6803F00C03F3
:101F5000082B54D02369002B00F08A807A4B012291
:101F60001A60FFF7A7F80546764B1B6813F0020FBF
:101F700075D1FFF79FF8401B0228F5D903209EE199
:101F8000704A136843F480331360636843B3FFF708
:101F900091F805466B4B1B6813F4003FCBD1FFF75C
:101FA00089F8401B6428F5D9032088E1B3F5A02FF8
:101FB00009D0644B1A6822F480321A601A6822F43D
:101FC00080221A60E1E703F18043A3F53C331A68ED
:101FD00042F480221A601A6842F480321A60D4E710
:101FE000FFF768F80546574B1B6813F4003FA2D073
:101FF000FFF760F8401B6428F5D903205FE1514BDF
:102000005B6813F4803FA5D14E4B1B6813F0020FA1
:1020100003D02369012B40F04F814A4A136823F013
:10202000F803616943EAC1031360236813F0080FE2
:1020300033D0A369002B5CD0434B0122C3F880242A
:10204000FFF738F805463F4B5B6A13F0020F21D1CA
:10205000FFF730F8401B0228F5D903202FE1394A59
:10206000136823F0F803616943EAC1031360DCE7F6
:10207000354B00221A60FFF71DF80546314B1B68EF
:1020800013F0020FD1D0FFF715F8401B0228F5D945
:10209000032014E10120FFF701FF236813F0040F70
:1020A00000F09680274BDB6913F0805F34D1254B1D
:1020B000DA6942F08052DA61DB6903F08053019300
:1020C000019B0125214B1B6813F4807F26D0E36818
:1020D000012B3DD0002B53D103F1804303F5043392
:1020E0001A6A22F001021A621A6A22F004021A62C3
:1020F00033E0154B0022C3F88024FEF7DBFF0546D2
:10210000104B5B6A13F0020FC7D0FEF7D3FF401BE2
:102110000228F5D90320D2E00025D3E70B4A136843
:1021200043F480731360FEF7C5FF0646074B1B6838
:1021300013F4807FCBD1FEF7BDFF801B6428F5D957
:102140000320BCE00010024000004242007000404A
:102150005F4A136A43F001031362E36833B3FEF787
:10216000A9FF06465A4B1B6A13F0020F2FD1FEF748
:10217000A1FF801B41F288339842F3D903209EE0EF
:10218000052B09D0524B1A6A22F001021A621A6A10
:1021900022F004021A62E0E74D4B1A6A42F0040290
:1021A0001A621A6A42F001021A62D6E7FEF782FF4B
:1021B0000646474B1B6A13F0020F08D0FEF77AFF62
:1021C000801B41F288339842F3D9032077E0E5B9C8
:1021D000E369002B72D03E4A526802F00C02082AD2
:1021E00056D0022B17D03B4B00221A66FEF762FF37
:1021F0000446374B1B6813F0007F47D0FEF75AFFA9
:10220000001B0228F5D9032059E0314AD36923F095
:102210008053D361DCE72F4B00221A66FEF74AFF9A
:1022200005462B4B1B6813F0007F06D0FEF742FFDC
:10223000401B0228F5D9032041E0236AB3F5803F13
:102240001AD023494B6823F47413226A606A02434C
:1022500013434B601F4B01221A66FEF72BFF044607
:102260001B4B1B6813F0007F0ED1FEF723FF001BF2
:102270000228F5D9032022E0154A536823F40033DD
:10228000A1680B435360DCE7002018E0002016E053
:10229000012B16D00E4B5B6803F48031226A914209
:1022A00011D103F47013626A93420ED1002006E04C
:1022B00001207047012002E0012000E0002002B070
:1022C00070BD0120FBE70120F9E70120F7E700BF1F
:1022D00000100240000042420F4B5B6803F00C020A
:1022E000082A01D00D487047C3F383420C49885C2B
:1022F00013F4803F0CD0084B5A68C2F340420B469F
:1023000013441B7C054A02FB00F0B0FBF3F070475E
:10231000044B03FB00F070470010024000127A00EB
:10232000D069000800093D00002800F0A08070B5C9
:102330000D460446524B1B6803F007038B420BD239
:102340004F4A136823F007030B431360136803F02D
:1023500007038B4240F08D80236813F0020F17D0E3
:1023600013F0040F04D0474A536843F4E06353600A
:10237000236813F0080F04D0424A536843F46053B3
:102380005360404A536823F0F003A1680B43536045
:10239000236813F0010F31D06368012B20D0022B8A
:1023A00025D0384A126812F0020F64D035494A68C5
:1023B00022F0030213434B60FEF77CFE0646314BCE
:1023C0005B6803F00C036268B3EB820F16D0FEF774
:1023D00071FE801B41F288339842F0D9032045E01A
:1023E000284A126812F4003FE0D101203EE0254A5D
:1023F000126812F0007FD9D1012037E0204B1B6812
:1024000003F00703AB420AD91D4A136823F0070300
:102410002B431360136803F00703AB422DD12368ED
:1024200013F0040F06D0174A536823F4E063E16801
:102430000B435360236813F0080F07D0114A536809
:1024400023F46053216943EAC1035360FFF744FF5B
:102450000C4B5B68C3F303130B4AD35CD8400B4BA4
:1024600018600B4B1868FEF7E3FD002070BD0120DB
:1024700070470120FAE70120F8E70120F6E700BFE6
:102480000020024000100240F891000820000020C7
:1024900004000020014B1868704700BF2000002096
:1024A00008B5FFF7F7FF044B5B68C3F30223034A49
:1024B000D35CD84008BD00BF00100240089200085D
:1024C00008B5FFF7E7FF044B5B68C3F3C223034A79
:1024D000D35CD84008BD00BF00100240089200083D
:1024E000026802F10C0353E8003F23F490730C32AE
:1024F00042E800310029F3D1026802F1140353E8E5
:10250000003F23F00103143242E800310029F3D1E7
:10251000036B012B05D0202380F842300023036396
:102520007047026802F10C0353E8003F23F01003E8
:102530000C3242E800310029F3D1ECE790F8413049
:10254000DBB2212B01D0022070478368B3F5805F96
:1025500017D0036A5A1C02621A7803685A60C38C47
:102560009BB2013B9BB2C3844BB90268D36823F092
:102570008003D3600268D36843F04003D360002037
:1025800070470369002BE4D1036A1B880268C3F318
:1025900008035360036A02330362E0E710B50446A0
:1025A0000268136923F44053C1680B4313618368C5
:1025B0000269134342691A430168CB6823F4B0539C
:1025C00023F00C031343CB600268536923F4407378
:1025D00081690B4353610268134B9A4220D0FFF785
:1025E0005FFF024602EB820202EB820263689B00FD
:1025F000B2FBF3F20D48A0FB02314909642303FB4F
:1026000011231B013233A0FB03035B0903F0F0022B
:1026100002EB011203F00F03216813448B6010BD1D
:10262000FFF74EFF0246DDE7003801401F85EB5102
:102630002DE9F84305460F4616469946DDF82080F9
:102640002B681C6837EA04040CBF01240024B44240
:102650002DD1B8F1FF3FF3D0B8F1000F05D0FEF750
:1026600029FDA0EB09004045EAD92A6802F10C03D4
:1026700053E8003F23F4D0730C3242E800310029C4
:10268000F3D12A6802F1140353E8003F23F0010359
:10269000143242E800310029F3D1202385F841307B
:1026A00085F84230002385F84030032000E0002008
:1026B000BDE8F88360B310B5044690F8413013B319
:1026C000242384F841302268D36823F40053D36074
:1026D0002046FFF763FF2268136923F490431361D8
:1026E0002268536923F02A0353612268D36843F4B4
:1026F0000053D36000206064202384F8413084F8C4
:102700004230606310BD80F8403001F047F8D7E7F1
:10271000012070472DE9F04182B01E4690F841300B
:10272000DBB2202B4BD104460D46904600294AD0FF
:102730000AB9012044E000234364212380F841309A
:10274000FEF7B8FC0746A4F82480A4F82680A36806
:10275000B3F5805F02D04FF000080FE02369FBB1B2
:102760004FF000080AE038F8023B2268C3F3080380
:102770005360E28C92B2013A92B2E284E38C9BB253
:102780008BB100963B46002280212046FFF750FF88
:10279000D8B9002DE7D015F8012B23685A60E8E777
:1027A000A8460025EAE700963B4600224021204645
:1027B000FFF73EFF58B9202384F8413000E00220A3
:1027C00002B0BDE8F0810120FAE70320F8E703201A
:1027D000F6E72DE9F04182B01E4690F84230DBB2B8
:1027E000202B53D104460D469046002952D00AB9F9
:1027F00001204CE000234364222280F8422003633E
:10280000FEF758FC0746A4F82C80A4F82E80A36895
:10281000B3F5805F02D04FF0000817E0236913B1D1
:102820004FF0000812E0A84600250FE023685B681F
:10283000C3F3080328F8023B03E023685B682B70AE
:102840000135E28D92B2013A92B2E285E38D9BB2FC
:10285000BBB100963B46002220212046FFF7E8FE50
:10286000D0B9002DE2D0A368B3F5805FE5D013B9ED
:102870002369002BE1D023685B6803F07F032B7092
:10288000DEE7202384F84230002000E0022002B07E
:10289000BDE8F0810120FAE70320F8E7704708B5AA
:1028A0000168CA6822F04002CA60202280F84120F4
:1028B000FFF7F4FF002008BD7047704708B5406A75
:1028C0000023C385C384FFF7F8FF08BD704790F865
:1028D0004230DBB2222B69D18368B3F5805F4FD0E1
:1028E000826AB3F5805F04D0002B56D10369002BB8
:1028F00053D103685B681370836A01338362C38DAD
:102900009BB2013B9BB2C385002B51D100B583B074
:102910000268D36823F02003D3600268D36823F4ED
:102920008073D3600268536923F00103536120234D
:1029300080F8423000234363036B012B33D1002323
:102940000363026802F10C0353E8003F23F0100315
:102950000C3242E800310029F3D103681A6812F002
:10296000100F06D0002201921A6801925B68019351
:10297000019B818DFFF7AAFF002003B05DF804FBE7
:102980000269002AACD1826A03685B68C3F308035A
:102990001380836A02338362B1E703685B6803F0E4
:1029A0007F031370A8E7FFF787FFE5E70220704772
:1029B0000020704710B582B0044602681368D068E2
:1029C000516913F00F0F09D113F0200F0CD010F044
:1029D000200F09D02046FFF77AFF16E011F0010121
:1029E00015D110F4907F12D1216B012979D013F009
:1029F000800F03D010F0800F40F0138113F0400FD0
:102A000003D010F0400F40F0108102B010BD13F061
:102A1000010F06D010F4807F03D0626C42F00102F7
:102A2000626413F0040F04D019B1626C42F0020228
:102A3000626413F0020F04D019B1626C42F0040218
:102A4000626413F0080F07D010F0200F00D119B105
:102A5000626C42F008026264626C002AD5D013F006
:102A6000200F02D010F0200F29D123685B6903F0FA
:102A70004003626C12F0080F00D163B32046FFF7E9
:102A80002FFD23685B6913F0400F20D0226802F10C
:102A9000140353E8003F23F04003143242E80031AE
:102AA0000029F3D1E36B73B1624A5A63E06BFEF71E
:102AB000EDFB0028A9D0E06B436B9847A5E72046C3
:102AC000FFF705FFD1E72046FFF7F7FE9DE7204619
:102AD000FFF7F3FE99E72046FFF7EFFE002363645C
:102AE00093E713F0100F82D010F0100F3FF47FAF78
:102AF000002301931368019353680193019B536969
:102B000013F0400F51D0E26B13685B689BB2002B4F
:102B10003FF47BAFA18D99427FF677AFE385936950
:102B2000202B37D0226802F10C0353E8003F23F436
:102B300080730C3242E800310029F3D1226802F19F
:102B4000140353E8003F23F00103143242E800313C
:102B50000029F3D1226802F1140353E8003F23F067
:102B60004003143242E800310029F3D1202384F8D5
:102B7000423000232363226802F10C0353E8003F34
:102B800023F010030C3242E800310029F3D1E06B4E
:102B9000FEF758FB02236363A18DE38D9BB2C91A34
:102BA00089B22046FFF792FE2FE7A18DE38D9BB2FD
:102BB000C91A89B2E38D9BB2002B3FF426AF0029DE
:102BC0003FF423AF226802F10C0353E8003F23F4E3
:102BD00090730C3242E800300028F3D1226802F1F1
:102BE000140353E8003F23F00103143242E800309D
:102BF0000028F3D1202384F8423000232363226885
:102C000002F10C0353E8003F23F010030C3242E8BA
:102C100000300028F3D1022363632046FFF756FEFD
:102C2000F3E62046FFF78AFCEFE62046FFF737FE83
:102C3000EBE600BFBD28000810B5044610F0010FF8
:102C400000F08880012211467648FEF722FD14F03C
:102C5000020F00F08580012202217248FEF719FD63
:102C600014F0040F00F08280012204216D48FEF769
:102C700010FD14F0080F7FD0012208216948FEF7EB
:102C800008FD14F0100F7DD0012210216548FEF7D9
:102C900000FD14F0200F7BD0012220216148FEF7B7
:102CA000F8FC14F0400F79D0012240215D48FEF776
:102CB000F0FC14F0800F77D0012280215948FEF7F4
:102CC000E8FC14F4807F75D001224FF480715548E0
:102CD000FEF7DFFC14F4007F73D001224FF4007183
:102CE0005048FEF7D6FC14F4806F71D001224FF4E7
:102CF00080614C48FEF7CDFC14F4006F6FD00122C8
:102D00004FF400614748FEF7C4FC14F4805F6DD0B7
:102D100001224FF480514348FEF7BBFC14F4005FDE
:102D20006BD001224FF480613F48FEF7B2FC14F4EF
:102D3000804F69D001224FF400613B48FEF7A9FCA7
:102D400014F4004F67D100224FF400413548FEF7DC
:102D5000A0FC10BD002201213248FEF79AFC76E764
:102D6000002202212F48FEF794FC79E7002204217B
:102D70002C48FEF78EFC7CE7002208212948FEF74C
:102D800088FC7EE7002210212648FEF782FC80E7BF
:102D9000002220212348FEF77CFC82E7002240210C
:102DA0002048FEF776FC84E7002280211D48FEF7CC
:102DB00070FC86E700224FF480711A48FEF769FC28
:102DC00088E700224FF400711648FEF762FC8AE79C
:102DD00000224FF480611348FEF75BFC8CE7002271
:102DE0004FF400610F48FEF754FC8EE700224FF4C9
:102DF00080510C48FEF74DFC90E700224FF48061B3
:102E00000948FEF746FC92E700224FF400610648AD
:102E1000FEF73FFC94E701224FF400410148FEF722
:102E200038FC96E700080140000C014010B504464C
:102E30000021FEF7D5F848B908492046FEF7E4F826
:102E400048B106492046FDF723FE05E00349204628
:102E5000FDF720FE00E0204610BD00BF0000B44397
:102E60002DE9F04389B00024049405940694079456
:102E7000334B9A6942F010029A619A6902F010028B
:102E80000092009A9A6942F020029A619A6902F0CF
:102E900020020192019A9A6942F004029A619A69A9
:102EA00002F004020292029A9A6942F008029A61C0
:102EB0009B6903F008030393039BDFF88890224685
:102EC0004FF4C0414846FEF7E4FBDFF87C80224621
:102ED00049F6FF714046FEF7DCFB1C4E22464FF4DC
:102EE00040613046FEF7D5FB4FF4C0430493012503
:102EF000059506940227079704A94846FEF7B4FAF9
:102F000049F6FF73049305950694079704A9404674
:102F1000FEF7AAFA4FF440630493059506940797C9
:102F200004A93046FEF7A0FA1823049305940695E9
:102F300004A93046FEF798FA09B0BDE8F08300BF57
:102F4000001002400010014000080140000C014048
:102F500000B583B00A4B5A6942F001025A615B69BD
:102F600003F001030193019B002211460F20FEF79D
:102F700001F90F20FEF70EF903B05DF804FB00BF66
:102F80000010024072B6FEE708B50A480A4B03601B
:102F90000A4B436000238360C3604FF480420261A8
:102FA00043618361C3610362FEF714FD00B908BD8C
:102FB000FFF7E8FF0C02002000540040801A0600D2
:102FC00008B50A480A4B43654FF4E1338365002393
:102FD000C365036643660C228266C366036754308A
:102FE000FFF768FB00B908BDFFF7CCFF0C0200201B
:102FF0000038014000B591B02822002106A801F058
:1030000098FB0023019302930393049305930122F9
:1030100006924FF4803307930A9202220D920E9388
:103020004FF4E0130F9306A8FEF74EFF80B90F236D
:10303000019302210291002303934FF480620492D2
:10304000059301A8FFF770F920B911B05DF804FBF2
:10305000FFF798FFFFF796FF70B5A6B0FEF70CF8E4
:10306000FFF7C8FFFFF7FCFEFFF78EFFFFF770FFCB
:10307000FFF7A6FF6420FEF723F8B14C002584F883
:10308000FA505A22294604F1A00001F052FBA4F89C
:10309000FC500023C4F80031C820FEF711F800F0FE
:1030A0006BFA6420FEF70CF829460A2000F0A4F918
:1030B0000522A4491EA801F0D9FAA34E01223146E7
:1030C0001EA800F0EDF900F033FA3220FDF7F8FF0A
:1030D0000F210A2000F090F9012231469B4800F0B0
:1030E000DFF900F025FA3220FDF7EAFF23210A205C
:1030F00000F082F901223146954800F0D1F900F044
:1031000017FA3220FDF7DCFF3721052000F074F9B3
:10311000012231468F4800F0C3F900F009FA32204D
:10312000FDF7CEFF2846FFF787FD01224FF400513F
:103130008948FEF7AEFA052288491EA801F096FAE2
:103140001EA8FDF705F8642382B21EA904F15400FD
:10315000FFF7E0FA03E00A2A1ED00D2A1CD06423F0
:1031600001220DF10B017E48FFF733FB0028F6D159
:103170009DF80B20A2F12003DBB25E2BEBD8704B45
:1031800093F8FA30582BEAD86D49C81880F8A02077
:10319000013381F8FA30E2E7694B93F8FA30002BFB
:1031A000DDD067480344002283F8A0202021A0300E
:1031B00001F0C7FA40B96248002180F8FA105A229B
:1031C000A03001F0B6FACAE7664907A801F099FBFA
:1031D000654907A801F0C2FA00240DE01022002181
:1031E00000F01CFD04F198036B4403F88C0C5E495D
:1031F000002001F0B3FA013408B10E2CEEDD0F2CE3
:103200001AD19DF80C30A52B04D19DF80D20992AD8
:1032100000F08C809DF80D200092052253491EA8D5
:1032200001F024FA1EA8FCF793FF642382B21EA9C2
:103230004B48FFF76FFABEE7234605224C491EA80C
:1032400001F014FA1EA8FCF783FF642382B21EA9C2
:103250004348FFF75FFAAEE703F198026A4412F8B9
:103260008C2C99336B4413F88C0C40EA0220344CBC
:10327000A4F8FC00FDF7BEFC3E49FDF713FD3E49F6
:10328000FDF7C4FDC4F800010F210A2000F0B4F8D6
:10329000B4F8FC2039491EA801F0E8F92A4D0122B2
:1032A00029461EA800F0FCF823210A2000F0A4F80B
:1032B000D4F80001FDF7B8F802460B4630491EA8C5
:1032C00001F0D4F9012229461EA800F0E9F800F027
:1032D0002FF9B4F8FC00FFF7AFFC1F4D00224FF4AC
:1032E00000512846FEF7D5F91420FDF7E9FE01222A
:1032F0004FF400512846FEF7CCF9B4F8FC50D4F84E
:103300000001FDF791F8CDE900012B4605221D498A
:103310001EA801F0ABF91EA8FCF71AFF642382B2C5
:103320001EA904F15400FFF7F5F944E70122052333
:10333000052A3FF740AF052A8ED002330132F7E766
:103340000C02002010920008180000201C920008B7
:103350002C9200083C92000800100140489200089E
:1033600060020020AC020020289200088092000831
:103370005C9200080000B44300FF7F47AC92000855
:10338000BC920008CC92000808B530B900214FF477
:103390008062034801F0CDF908BDFF21F7E700BFC7
:1033A0005C0300207F2817D83F2915D8114B1B79C3
:1033B00013B1B2FA82F25209012A0ED0CB0800EB07
:1033C000C3100C4A0244107A01F0070101238B401C
:1033D000DB435BB2034013727047CB0800EBC310B2
:1033E000044B03441A7A01F00700012181400A438B
:1033F0001A72704754030020014B1880598070479F
:10340000540300202DE9F8439046244B1B880A788A
:1034100013447F2B3EDC81460D46204B5B884A7867
:1034200013443F2B38DC002620E01C4B18885988B9
:1034300031442044B8FA88F2520989B280B2FFF7C9
:10344000B1FF01342B78A3420FD907FA04F313F428
:10345000004FEAD0114B1888598831442044424625
:1034600089B280B2FFF79EFFEBE701366A78B2427D
:1034700008D96968A9F1200302FB036331F81370CE
:103480000024DFE7054A138829780B441380484657
:10349000BDE8F8830020FBE70020F9E75403002093
:1034A00070B504460E46154600E00134207838B168
:1034B0002A463146FFF7A6FF034620788342F4D020
:1034C00070BD000000B5C3B08DF808104FF0000CBF
:1034D00009E00CF1010E12F80C100DF1080C0CF8BB
:1034E0000E105FFA8EFC9C45F3D301330A22009242
:1034F0009BB202AA01460348FEF74AFB43B05DF8BF
:1035000004FB00BF0C02002000B585B08DF80C1044
:103510008DF80D200A230093022303AA01460348D5
:10352000FEF736FB05B05DF804FB00BF0C0200207F
:1035300010B500241AE0A4F15002D2B20021782084
:10354000FFF7E2FF002211467820FFF7DDFF10228F
:1035500000217820FFF7D8FF8023064A02EBC4122F
:1035600040217820FFF7AEFF0134E4B2072CE2D906
:1035700010BD00BF5C03002008B544F620630122A3
:1035800078215548FEF7C0FB002840F0A38040F6A4
:10359000C41300E0013B002BFCD1AE2200217820B7
:1035A000FFF7B2FF202200217820FFF7ADFF1022A5
:1035B00000217820FFF7A8FFB02200217820FFF734
:1035C000A3FFC82200217820FFF79EFF00221146AA
:1035D0007820FFF799FF102200217820FFF794FF51
:1035E000402200217820FFF78FFF812200217820E0
:1035F000FFF78AFFFF2200217820FFF785FFA12235
:1036000000217820FFF780FFA62200217820FFF715
:103610007BFFA82200217820FFF776FF3F220021C0
:103620007820FFF771FFA42200217820FFF76CFFBC
:10363000D32200217820FFF767FF0022114678206F
:10364000FFF762FFD52200217820FFF75DFFF0220F
:1036500000217820FFF758FFD92200217820FFF7BA
:1036600053FF222200217820FFF74EFFDA220021AB
:103670007820FFF749FF122200217820FFF744FF4E
:10368000DB2200217820FFF73FFF20220021782055
:10369000FFF73AFF8D2200217820FFF735FF142233
:1036A00000217820FFF730FFAF2200217820FFF7BC
:1036B0002BFF2E2200217820FFF726FF0020FFF7A6
:1036C00063FEFFF735FF054B00221A805A80012068
:1036D000587108BD0020FCE70C02002054030020B4
:1036E00082B00E4B9A6942F001029A619A6902F027
:1036F00001020092009ADA6942F08052DA61DB69D5
:1037000003F080530193019B054A536823F0E06363
:1037100043F00073536002B0704700BF00100240D6
:103720000000014010B586B0002302930393049378
:1037300005930268154B9A4201D006B010BD144C97
:10374000A36943F00803A361A36903F0080300938E
:10375000009B4FF4407302931223039303230593BA
:1037600002A90C48FDF780FE0B4A536843F0E06362
:1037700043F002035360E36943F40013E361E36938
:1037800003F400130193019BD7E700BF00540040EE
:1037900000100240000C014000000140F0B587B06D
:1037A000002302930393049305930268254B9A42E6
:1037B00001D007B0F0BD044603F558439A6942F4BE
:1037C00080429A619A6902F480420092009A9A6952
:1037D00042F008029A619B6903F008030193019B80
:1037E000402302930223039303230593164F02A958
:1037F0003846FDF739FE802602960025039504958C
:1038000002A93846FDF730FE104A536843F0E063E2
:1038100043F0040353600E480E4B0360456085601F
:10382000C66005614561202383614FF44053C36145
:10383000FDF7D2FC18B9064BE3635C62B9E7FFF70A
:10384000A1FBF8E700380140000C014000000140F6
:1038500010030020580002407047FEE7FEE7FEE735
:10386000FEE770477047704738B54E4B1C6808211B
:103870004D48FDF707FFE8B94C4A13680133136060
:103880004A4B9A684A4981FB0231D317C3EB611353
:10389000642101FB132333B9444B1B68DBB9434B51
:1038A0005B68002B4DD1414A936801339360FDF76B
:1038B000F5FB38BD10213C48FDF7E4FE30B93B4B29
:1038C0005A6801325A6000221A60D9E7374B002249
:1038D0005A601A60D4E7374D01224FF480412846E0
:1038E000FDF7D7FE4FF400512846FDF7D8FE2F4BC9
:1038F0001B68B3F5C87F0BDA4FF07E512046FDF709
:10390000C9F804462046FFF791FA264B1860C6E72F
:10391000B3F57A7F06DA4FF080412046FDF7BAF81A
:103920000446EFE7B3F5FA6F05DA23492046FDF7C1
:10393000B1F80446E6E721492046FDF7ABF8044616
:10394000E0E71C4D01224FF480412846FDF7A1FE1F
:103950004FF400512846FDF7A2FE144B5B68B3F507
:10396000C87F09DA4FF07E512046FDF791F8FFF746
:103970005DFA0C4B186096E7B3F57A7F05DA4FF0E5
:1039800080412046FDF784F8F1E7B3F5FA6F04DAD9
:1039900009492046FDF77CF8E9E708492046FDF78C
:1039A00077F8E4E70C030020000C01405C070020DE
:1039B0001F85EB51001001400000A0400000204195
:1039C00008B50248FDF7AEFC08BD00BF100300209B
:1039D00008B50248FEF7EEFF08BD00BF60020020F8
:1039E0000120704708B500F05FFF162303604FF019
:1039F000FF3008BD08B54FF0FF31FFF7F3FFFEE7DA
:103A000070B50C461646002506E0AFF3008021464F
:103A100001F8010B01350C46B542F6DB304670BDAE
:103A200070B50C461646002504E014F8010BAFF300
:103A300000800135B542F8DB304670BD08B503465D
:103A40000B4A126842B10A4A106803446A4693421C
:103A500006D8074A136008BD054A06491160F2E717
:103A600000F022FF0C2303604FF0FF30F3E700BFAC
:103A700068070020C00800204FF0FF3070474FF467
:103A800000534B60002070470120704700207047B2
:103A90000F4B1A6842F001021A6059680D4A0A4039
:103AA0005A601A6822F0847222F480321A601A680E
:103AB00022F480221A605A6822F4FE025A604FF4FF
:103AC0001F029A60044B4FF000629A60704700BF7B
:103AD000001002400000FFF800ED00E0002103E0CC
:103AE0000B4B5B58435004310A480B4B42189A4227
:103AF000F6D30A4A02E0002342F8043B084B9A42FC
:103B0000F9D3FFF7C5FF00F0D5FEFFF7A5FA704720
:103B1000C496000800000020EC010020EC01002009
:103B2000BC080020FEE70000242B2DE9F047864664
:103B3000904601D8012B06D100F0B6FE1623036093
:103B40000020BDE8F0870D4633482A4615F8014BA2
:103B5000065D16F00806F8D12D2C2DD101262C7803
:103B6000951C33F0100209D1302C2AD12A7802F0AA
:103B7000DF02582A25D110236C780235002206F185
:103B8000004C0CF1FF3CBCFBF3F9104603FB19CAD7
:103B9000A4F13007092F1BD83C46A34227DD571C50
:103BA00007D0814520D301D1A2451DDB012200FBB6
:103BB000034015F8014BEBE72B2C04BF2C78951C28
:103BC000CFE7002BDAD1302C0CBF08230A23D5E72E
:103BD000A4F14107192F01D8373CDEE7A4F16107B2
:103BE000192F04D8573CD8E74FF0FF32E1E7531CB8
:103BF00008D122236046CEF80030B8F1000FA0D0E3
:103C0000691E06E006B14042B8F1000F99D0002AC3
:103C1000F6D1C8F8001094E7EA92000813460A4665
:103C2000014602480068FFF77FBF00BF3000002058
:103C3000002B2DE9F0471D46BBBF03F100431D4695
:103C400000232D2388B01446B8BF1446129A109E44
:103C50001370149BDDF84CA023F02008B8F1460F38
:103C600005D0B8F1450F00D10136022300E003234F
:103C700007AA049206AACDE902A2CDE9003622469F
:103C80002B4600F0FDFEB8F1470F074619D1119BF6
:103C9000DB070ED500EB060900220023204629464B
:103CA000FCF782FE08B1CDF81C903022079B4B45F3
:103CB0001ED33846079B159ADB1B136008B0BDE87E
:103CC000F087B8F1460F00EB0609E5D10378302BF9
:103CD0000AD10022002320462946FCF765FE18B9C8
:103CE000C6F10106CAF80060DAF800309944D3E75B
:103CF000591C07911A70D9E7F7B50029B6BF2D23D3
:103D00002B23494209290270437029DD0DF1070375
:103D10001D460A27B1FBF7F61A4607FB1614303486
:103D200002F8014C0C46632C314603F1FF33F1DC01
:103D30003031941E03F8011C2346411CAB420AD3C8
:103D40000DF109039B1AAC4288BF002302330344E0
:103D5000181A03B0F0BD13F8016B01F8016FEDE71D
:103D6000302330318370C170031DF1E72DE9F04F2E
:103D700091B00C46DDF8688016461F46054600F0F7
:103D800049FD036818460893FCF7E2F900230E93F7
:103D9000D8F800300990073323F0070303F1080235
:103DA00094F818A0D4F800B0C8F80020D3E900892E
:103DB00029F000430B93CDF828804FF0FF32DDE966
:103DC0000A01C4E912899C4BFCF720FE70BBDDE9B7
:103DD0000A014FF0FF32984BFCF7FAFD30BB00228E
:103DE000002340464946FCF7E9FD10B12D2384F835
:103DF0004330924A924BBAF1470F94BF904698468F
:103E000003234FF0000923612BF0040323603346A2
:103E10002146284600970FAA00F0D4F9013040F05F
:103E200090804FF0FF3011B0BDE8F08F42464B4616
:103E300040464946FCF7EAFD48B14B46002BB8BF67
:103E40002D23804AB8BF84F843307F4BD3E76368A3
:103E50000AF0DF015A1C3FD10623636000224BF4B5
:103E60008063236006920EAACDE904A20DAA0392F4
:103E70000DF13302CDE901326368424600932846D2
:103E80004B460A91FFF7D4FE0A99804647290D99BF
:103E900028D1C81C02DB6368994240DDAAF1020AFE
:103EA0005FFA8AFA5246013904F150000D91FFF78A
:103EB00023FF0E9A81461318012A236102DC22682F
:103EC000D20701D5013323619DF83330002B9ED0FA
:103ED0002D2384F843309AE74729BFD1002BBDD169
:103EE0000123BAE7BAF1650FDCD9BAF1660F18D130
:103EF000002963680BDD216113B92268D00702D560
:103F000001330B4423614FF00009A165DCE713B9CD
:103F10002268D20701D50233F4E70123F2E74FF01C
:103F2000670A0E9B994205DB23682161D807EAD511
:103F30004B1CE7E70029CCBF0122C1F10202134468
:103F4000E0E723685A0507D42369424631462846EC
:103F5000B84701302BD164E7BAF1650F40F2DC803D
:103F6000D4E9120100220023FCF71EFD002833D003
:103F7000012331462846354AB84701303FF451AF56
:103F8000DDE90D38434502DB2368D8070FD5DDE9AD
:103F9000082331462846B84701303FF442AF4FF07E
:103FA000000908F1FF3804F11A0AC84509DC236842
:103FB0009B0700F10281E0680F9B9842B8BF18464A
:103FC00031E70123524631462846B84701303FF4D5
:103FD00028AF09F10109E8E70D9B002B38DC01232C
:103FE00031462846194AB84701303FF41AAFDDE997
:103FF0000D3959EA030302D12368D907D7D5DDE982
:10400000082331462846B84701303FF40AAF4FF045
:10401000000A04F11A0B0D9B5B42534501DC4B4631
:1040200093E701235A4631462846B84701303FF40A
:10403000F8AE0AF1010AEEE7FFFFEF7FEA9300080E
:10404000EE930008F2930008F6930008FA93000834
:10405000A36DDDF838A05345A8BF5346002B994601
:1040600036DC4FF0000B29EAE97904F11A02A36D5E
:104070000A93A3EB09035B4531DC0D9B9A453ADCBF
:104080002368DA0737D40D9BAAEB03090A9BAAEB36
:1040900003039945A8BF9946B9F1000F33DC4FF0EF
:1040A000000829EAE97904F11A0B0D9BAAEB030336
:1040B000A3EB090343457FF77AAF01235A46314604
:1040C0002846B84701303FF4ACAE08F10108ECE7F0
:1040D000424631462846B8470130C2D1A1E6012305
:1040E000314628460A92B84701303FF49AAE0A9A00
:1040F0000BF1010BBBE73146DDE908232846B84741
:104100000130C0D18DE60A9A4B46314628464244DA
:10411000B8470130C3D184E6DDF838A0BAF1010F09
:1041200001DCDB0736D50123424631462846B84735
:1041300001303FF476AEDDE9082331462846B84722
:1041400001303FF46EAED4E91201002200230AF1DF
:10415000FF3AFCF729FCC0B9534608F10102314689
:104160002846B84701300CD15BE601235A46314658
:104170002846B84701303FF454AE08F10108D04555
:10418000F3DB4B4604F15002E0E64FF0000804F187
:104190001A0BF4E701234246E1E701234A46314680
:1041A0002846B84701303FF43CAE08F10108E36807
:1041B0000F995B1A4345F0DCFDE64FF0000804F16F
:1041C0001909F4E72DE9F047164698468A680B6905
:1041D00007469342B8BF1346336091F843200C461C
:1041E000DDF820900AB1013333602368990642BF9D
:1041F000336802333360256815F0060506D104F1F3
:10420000190AE36832689B1AAB422BDC94F84330FE
:104210002268003B18BF0123920630D4414638463D
:1042200004F14302C847013023D02368226903F018
:104230000603042B14BF002533684FF0000608BFA7
:10424000E56804F11A0408BFED1A54F8123C08BFDF
:1042500025EAE5759342C4BF9B1AED18B5421AD101
:10426000002008E00123524641463846C847013045
:1042700003D14FF0FF30BDE8F0870135C1E73020B2
:10428000E11881F843005A1C94F845102244023387
:1042900082F84310C2E70123224641463846C84708
:1042A0000130E6D00136D9E72DE9FF470F7E914670
:1042B000782F80460C469A460C9E01F1430207D89F
:1042C000622F0AD8002F00F0D380582F00F0BA8058
:1042D00004F1420684F842703AE0A7F16303152B1B
:1042E000F6D801A151F823F04143000855430008D6
:1042F000D1420008D1420008D1420008D142000852
:1043000055430008D1420008D1420008D1420008BC
:10431000D1420008574400087F43000811440008B8
:10432000D1420008D142000879440008D142000877
:104330007F430008D1420008D14200081944000818
:1043400033681A1D1B68326004F1420684F842305B
:1043500001239EE033682068191D3160060601D5EF
:104360001D6803E04506FBD5B3F90050002D03DAC4
:104370002D236D4284F843300A23594811E0216807
:104380003368080653F8045B02D4490648BFADB24F
:104390006F2F336014BF0A2308235148002184F88B
:1043A00043106668002EA8BF2168A660A4BF21F054
:1043B000040121600DB9002E4BD01646B5FBF3F178
:1043C00003FB1157C75D06F8017D2F46BB420D4622
:1043D000F4D9082B0BD12368DF0708D5236961685E
:1043E0009942DEBF302306F8013C06F1FF36921BEE
:1043F00022614B4621464046CDF800A003AAFFF7B4
:10440000E1FE01304AD14FF0FF3004B0BDE8F08743
:10441000236843F0200323607827324884F84570EE
:10442000236831681F0651F8045B02D45F0648BF59
:10443000ADB23160D90744BF43F0200323601DB102
:104440001023ABE72648E9E7236823F02003236025
:10445000F6E71646BDE733682568181D61693060C8
:104460002E061B6801D5196002E06806FBD519808D
:10447000002316462361BCE7336800211A1D326011
:104480001E686268304600F044FA08B1801B606024
:1044900063682361002384F84330AAE73246494623
:1044A00040462369D0470130ADD023689B0713D421
:1044B000E068039B9842B8BF1846A6E7012332463E
:1044C00049464046D04701309DD00135E368039905
:1044D0005B1AAB42F2DCEBE7002504F11906F5E7C5
:1044E000FC9300080D940008002310B50446C0E9B1
:1044F0000033C0E90433836081814366C2818361F4
:10450000194608225C3000F014F90D4B24626362F6
:104510000C4BA3620C4BE3620C4B23630C4B9C4291
:1045200006D003F16802944202D0D0339C4205D1F8
:1045300004F15800BDE8104000F0E0B910BD00BF24
:10454000AD460008CF460008074700082B47000883
:1045500070070020024A0349034800F069B800BF11
:1045600024000020BD6200083400002041680C4B8C
:1045700010B59942044601D001F0A0FEA168094B94
:10458000994202D0204601F099FEE168064B99421B
:1045900004D02046BDE8104001F090BE10BD00BF21
:1045A00070070020D80700204008002010B50B4BF2
:1045B0000B4C0C4A20461A6004210022FFF794FF9E
:1045C00004F1680001220921FFF78EFF04F1D000F9
:1045D0000222BDE810401221FFF786BFA808002084
:1045E0007007002055450008014800F088B900BF59
:1045F000B1080020014800F083B900BFB1080020D5
:1046000010B50446FFF7F0FF236A1BB1BDE8104068
:10461000FFF7F0BF044B2362044B1B68002BF5D15E
:10462000FFF7C4FFF2E700BF6D450008A8080020AF
:104630002DE9F8430746884614460026D4E901953B
:10464000B9F1010905D52468002CF7D13046BDE841
:10465000F883AB89012B07D9B5F90E30013303D0AC
:1046600029463846C04706436835E9E70EB46FF07F
:10467000004100B59CB01DAB0290069007910491DB
:104680000848094953F8042B0591006802A90193D1
:1046900001F098FC0022029B1A701CB05DF804EB3C
:1046A00003B07047300000200802FFFF10B50C4631
:1046B000B1F90E1000F0D4F80028ABBF636DA389E8
:1046C0001B1823F48053ACBF6365A38110BD2DE993
:1046D000F0411F468B890546DB050C46164605D57D
:1046E00002230022B1F90E1000F0A8F8A389324687
:1046F00023F48053A38128463B46B4F90E10BDE84D
:10470000F04100F0BFB810B50C46B1F90E1000F042
:1047100095F8431CA38915BF606523F4805343F4C7
:104720008053A38118BFA38110BDB1F90E1000F012
:1047300075B803460244934200D1704703F8011B49
:10474000F9E70346C9B2184613F8012B12B18A42A1
:10475000F9D17047002918BF00207047164B2DE98A
:10476000F0411F6805467C6C0E46ECB9502000F005
:1047700097FF0246786420B95B21104B104800F087
:10478000D7F8C0E90044C0E90244C0E90444C0E9E4
:104790000A44C0E90C44C0E90E44C0E91044C0E931
:1047A0001244846104774462314628467A6C0123BE
:1047B000BDE8F04100F006B8300000201E9400086B
:1047C00035940008F0B5044608B9146844B10F46A2
:1047D000204614F8015B17F8016B1EB965B9156026
:1047E000002005E0B542F6D1002BF0D11460037033
:1047F000F0BD1C460CE015B90E4614F8013B16F846
:10480000015BAB42F7D1002BF3D0002304F8013C4D
:104810001460EDE7004870477001002038B50023B0
:10482000054D044608462B60FFF726F9431C02D1CC
:104830002B6803B1236038BDAC08002038B50446AE
:10484000084611460022054D2A601A46FFF71EF958
:10485000431C02D12B6803B1236038BDAC08002093
:1048600038B50446084611460022054D2A601A460E
:10487000FFF7C6F8431C02D12B6803B1236038BD93
:10488000AC08002038B50446084611460022054D04
:104890002A601A46FFF7C4F8431C02D12B6803B103
:1048A000236038BDAC080020014B1868704700BF7A
:1048B0003000002070B500260C4D0D4C641BA41078
:1048C000A64209D102F078F800260A4D0A4C641B72
:1048D000A410A64205D170BD55F8043B9847013697
:1048E000EEE755F8043B98470136F2E7BC9600081E
:1048F000BC960008BC960008C09600087047704738
:104900007047034611F8012B03F8012B002AF9D157
:104910007047034610B5C9B202449342184601D10C
:10492000002003E0047801338C42F6D110BD000072
:104930001FB514461A46094B05461B68D86854B97A
:10494000074B1C46CDE9013400912B46054901F087
:10495000DDFC01F025FD044BF4E700BF3000002032
:10496000CA9400089C9400088F9400082DE9F74F22
:1049700003690C690746A3427EDB013CA30000F1FA
:10498000140501F11408009305EB8403019358F812
:10499000243055F8242001339A42B2FBF3F608EB99
:1049A00084092ED34FF0000AC446AE46D3465CF8C5
:1049B000043B98B206FB00A01B0C020C06FB032371
:1049C000DEF8002080B292B2121A5A44DEF80000DB
:1049D0004FEA134A9BB2C3EB224303EB104392B25C
:1049E00042EA0342E1454FEA234B4EF8042BDED264
:1049F000009BEB582BB9019B043B9D421A462FD3D9
:104A00003C61384601F07AF9002825DB2946002070
:104A100058F8042BD1F800C01FFA82FE1FFA8CF35D
:104A2000A3EB0E030344120CC2EB234202EB1C4225
:104A30009BB243EA0243C1454FEA224041F8043B9E
:104A4000E6D255F8242005EB840322B9043B9D42AD
:104A50001A460BD33C610136304603B0BDE8F08FF7
:104A60001268043B002ACBD1013CC6E71268043B24
:104A7000002AEFD1013CEAE70020EEE70000000049
:104A80002DE9F04F14461D46C76997B08346CDE91E
:104A90000245239E7FB9102000F002FE0246CBF8AB
:104AA0001C0020B9EF21A84BA848FFF741FFC0E93F
:104AB00001770760C760DBF81C30196859B15A6884
:104AC000012393404A608B60584600F0DFFE0022CD
:104AD000DBF81C301A602B1EAFBF0023012223F02D
:104AE00000430393A8BF3360DDF80C80984BB8BF38
:104AF000326033EA080312D142F20F73229A136034
:104B0000C8F31303234300F05085249BDFF844A22D
:104B1000002B00F052850AF1030300F04CBDDDE9E3
:104B20000223CDE90C23DDE90C0100220023FBF771
:104B30003BFF074658B10123229A1360249B13B10F
:104B4000854B249A1360DFF814A200F036BD14AB35
:104B5000019315AB00935846DDE90C2301F07EF973
:104B6000C8F30A568146002E77D0DDE90C010D9B73
:104B7000A6F2FF36C3F3130343F07F5343F440130D
:104B8000129719460022764BFBF7EEFA68A3D3E999
:104B90000023FBF7A1FC68A3D3E90023FBF7E6FAA7
:104BA000044630460D46FBF72DFC65A3D3E90023F0
:104BB000FBF792FC02460B4620462946FBF7D6FA45
:104BC00004460D46FBF738FF002207460023204627
:104BD0002946FBF7F3FE40B13846FBF713FC2246AB
:104BE0002B46FBF7E1FE00B9013F162F53D8DDE954
:104BF0000C015C4B03EBC703D3E90023FBF7DEFE9C
:104C000000284AD00023013F0F93149B9B1B5A1E80
:104C100046BFC3F1010800234FF00008099248BFC6
:104C20000993002F3BDB099B0E973B44099300231C
:104C30000A93209B092B66D8052BC4BF043B209305
:104C4000209BC8BF0024A3F10203D8BF0124032B7B
:104C500064D8DFE803F02B383656DDE914631E44D0
:104C600006F23243202BC1BFC3F1400308FA03F818
:104C700006F2124324FA03F3D6BFC3F1200348EA35
:104C8000030004FA03F0FBF7ADFB0122A1F1F87376
:104C9000013E129275E70123B6E70F90B5E77B421C
:104CA0000A930023A8EB07080E93C2E700230B9397
:104CB000219B002B35DC01231A46CDE907332192D5
:104CC0000BE00123F3E700230B93219BFB180893D0
:104CD0000133012B0793B8BF012300210422DBF825
:104CE0001C0002F114059D421FD94160584600F096
:104CF0008DFD8246002839D1024640F2AF111A4B91
:104D0000D2E60123E0E7012400230B9420934FF027
:104D1000FF330022CDE907331223D0E701230B93A1
:104D2000F5E7219BCDE90733D7E701315200D8E7FA
:104D300061436F63A787D23FB3C8608B288AC63FA1
:104D4000FB799F501344D33F1E940008D894000869
:104D50000000F07FD4940008FB930008FA93000849
:104D60000000F83FD095000830950008DBF81C30B3
:104D70001860079B0E2B00F2A480002C00F0A1808D
:104D8000002F33DD864B07F00F0203EBC203F8055B
:104D9000D3E90034CDE904344FEA271416D5DDE910
:104DA0000C01804B0326D3E90823FBF7BFFCCDE9B8
:104DB000020104F00F047B4D54B9DDE90423DDE961
:104DC0000201FBF7B3FCCDE9020128E00226F2E77D
:104DD000E10708D5DDE90401D5E90023FBF77CFBF9
:104DE000CDE90401013664100835E5E700F0D28012
:104DF000DDE90C017C426A4B04F00F0203EBC203B5
:104E0000D3E90023FBF768FB02260023CDE902016A
:104E1000644D2411002C40F0B280002BD3D1DDE989
:104E200002450F9B002B00F0B78000222046294648
:104E30005D4BFBF7C3FD002800F0AE80079B002B05
:104E400000F0AA80089B002B37DD7B1E20460493D0
:104E500000222946554BFBF73FFBCDE90201089C98
:104E600001363046FBF7CEFADDE90223FBF734FBCF
:104E700000224F4BFBF77AF90546A1F15076002C42
:104E800040F09A80DDE9020100224A4BFBF76CF901
:104E900002460B46CDE902232A463346FBF7ACFD1A
:104EA000002840F08E82DDE902012A4606F1004327
:104EB000FBF784FD002840F02781DDE90C34CDE9C3
:104EC0000234159B002BC0F263810E2F00F360812A
:104ED000334B03EBC703D3E90034CDE90434219B02
:104EE000002B03DA079B002B40F30081DDE902452C
:104EF0005646DDE9042320462946FBF717FCFBF75D
:104F00009BFD8046FBF77EFADDE90423FBF7E4FA1C
:104F100002460B4620462946FBF726F908F13004E5
:104F2000079D06F8014BA6EB0A04A54202460B4674
:104F300040F01681FBF71AF9DDE9042304460D461B
:104F4000FBF75AFD002840F0F880DDE904232046F5
:104F50002946FBF729FD18B118F0010F40F0ED804C
:104F60004946584600F092FC00233370229B0137DB
:104F70001F60249B002B00F020831E601DE3E207CE
:104F800005D5D5E90023FBF7A7FA01230136641004
:104F900008353FE7022642E7079C049761E700BF18
:104FA000D0950008A89500080000F03F00002440BC
:104FB00000001C4000001440704B0B9903EBC4032D
:104FC00053E902235444002945D000206C49FBF7E3
:104FD000ADFB33462A46FBF7C7F85646CDE910012C
:104FE000DDE90201FBF728FD0546FBF70BFA024657
:104FF0000B46DDE90201FBF7B7F802460B463035F8
:10500000CDE90223DDE9102306F8015BFBF7D6FCAE
:10501000002863D1DDE9022300205A49FBF7A4F8F8
:10502000DDE91023FBF7CAFC002840F08780A64288
:105030003FF443AFDDE910010022534BFBF74CFA7C
:105040000022CDE91001DDE902014F4BFBF744FAE4
:10505000CDE90201C4E731462846FBF73DFA564642
:10506000CDE910011394DDE90201FBF7E5FC0546EB
:10507000FBF7C8F902460B46DDE90201FBF774F8BD
:1050800002460B46303506F8015BA642CDE9022305
:105090004FF0000224D1DDE91001394BFBF766F82F
:1050A00002460B46DDE90201FBF7A6FC002845D1CC
:1050B000DDE9102300203249FBF756F802460B4683
:1050C000DDE90201FBF77AFC00283FF4F6AE139EFF
:1050D000731E139316F8013C302BF8D0049F3FE762
:1050E000294BFBF7F9F9CDE90201BCE70CD1DDE969
:1050F00004010022254BFBF7EFF9DDE90223FBF762
:1051000071FC002800F05B8100242546219B564657
:10511000DB43049300272146584600F0B7FB002DDF
:10512000DCD02FB1AF4203D03946584600F0AEFB79
:105130002946584600F0AAFBD0E7049733461E469E
:1051400013F8012D392A07D19A45F8D1049A013272
:10515000049230228AF800201A7801321A70BDE7D2
:105160000022094BFBF7B8F90022002304460D4644
:10517000FBF71AFC00283FF4BCAEF1E6D09500081E
:105180000000E03F0000F03F000024400000144019
:105190000B9A002A00F0DB80209A012A00F3BF80DE
:1051A000129A002A00F0B78003F2334346460A9C65
:1051B000099A01211A4458469844099200F01AFCB1
:1051C00005465EB1099B002B08DDB342A8BF3346FC
:1051D000099AA8EB0308F61AD31A09930A9BF3B1AC
:1051E0000B9B002B00F0B7808CB129462246584615
:1051F00000F0BEFC4A4601460546584600F010FC49
:1052000049460490584600F041FB049B99460A9B8E
:105210001A1B04D04946584600F0AAFC81460121D9
:10522000584600F0E7FB0E9B0446002B00F0C981B6
:105230001A460146584600F09BFC209B0446012B71
:1052400000F38F80029B002B40F08780039BC3F309
:105250001303002B40F08380039B23F000431B0DBE
:105260001B052BB1099B08F10108013309930123A8
:105270000A930E9B002B00F0AA81236904EB8303A1
:10528000186900F06BFBC0F12000099B184410F076
:105290001F0071D0C0F12003042B65DD099BC0F114
:1052A0001C000344804406440993B8F1000F05DD57
:1052B00049464246584600F0B5FC8146099B002B02
:1052C00005DD21461A46584600F0ACFC04460F9B0B
:1052D000002B53D02146484600F010FD00284DDA3F
:1052E0007B1E494604930A220023584600F0F0FA38
:1052F0000B9B8146002B00F06C81002329460A227B
:10530000584600F0E5FA089B0546002B61DC209B1F
:10531000022B3BDC5DE0149BC3F1360346E7079BA1
:105320005C1E0A9BA342BFBF0A9B0E9AE31AD218C7
:10533000A8BF1C1B079BBEBF0A940E920024002B23
:10534000B5BFA8EB030646460023079B30E7464659
:105350000A9C0B9D35E70A9A5CE7002388E7029BCD
:1053600086E700230A9388E79FD0099A1C331A44E2
:1053700098441E44099298E70346F6E7079B049772
:10538000002B20DC0893209B022B1EDD089B002BAA
:105390007FF4BCAE21460522584600F099FA01463A
:1053A0000446484600F0AAFC00287FF7AFAE312340
:1053B000564606F8013B049B01330493AAE6079C7A
:1053C00004972546F3E7079B08930B9B002B00F0FF
:1053D0000481002E05DD29463246584600F022FCA5
:1053E00005460A9B002B5AD05846696800F00EFA11
:1053F000064628B9024640F2EF21834BFFF754BB23
:105400002A6905F10C01023292000C3000F0BAFF5B
:1054100001223146584600F005FC2F4605460AF1A8
:1054200001030793089B53440B93029B03F0010372
:105430000A93079B2146013B48460293FFF796FAE1
:105440003946089000F13008484600F057FC2A46DB
:1054500009902146584600F06DFCC268064602BB22
:105460000146484600F04AFC0246314658460C9236
:1054700000F00CFA209B0C9A079E43EA02010A9B5B
:10548000194310D1B8F1390F29D0099B002B02DD47
:10549000089B03F13108029B83F800803BE6284615
:1054A000BBE70122E1E7099B002B04DB20990B43BA
:1054B0000A990B4320D1002AEDDD494601225846C6
:1054C00000F0B0FB2146814600F018FC002803DC08
:1054D000E1D118F0010FDED0B8F1390FD8D139235E
:1054E000029A137033461E4616F8012C013B392AE6
:1054F00052D001321A700EE6002A07DDB8F1390FDA
:10550000EDD0029A08F10103137004E6079B079A95
:1055100003F8018C0B9B934228D0494600230A22B2
:10552000584600F0D5F9AF4281464FF000034FF0E6
:105530000A023946584607D100F0CAF9074605461F
:10554000079B0133079374E700F0C2F92946074629
:1055500000230A22584600F0BBF90546F0E7089BF5
:105560000027002BCCBF1E46012656444946012287
:10557000584600F057FB2146814600F0BFFB00284B
:10558000B0DC02D118F0010FACD133461E4613F83F
:10559000012D302AFAD0BEE59A45A4D1049B0133EF
:1055A000049331238AF80030B5E5249BDFF85CA032
:1055B0001BB10AF10803249A1360504617B0BDE8E6
:1055C000F08F209B012B7FF73DAE0E9B0A930120AD
:1055D0005BE6089B002B7FF7D6AE56462146484631
:1055E000FFF7C4F900F13008089B06F8018BA6EB21
:1055F0000A029342B3DD494600230A22584600F0CE
:1056000067F98146EAE700BF30950008CB940008AF
:1056100038B50546002940D051F8043C0C1F002B3A
:10562000B8BFE41800F0E6F81C4A136833B96360A9
:1056300014602846BDE8384000F0E2B8A34208D91B
:10564000206821188B4201BF19685B680918216026
:10565000EDE71A465B680BB1A342FAD911685018FE
:10566000A0420BD120680144501883421160E0D160
:1056700018685B68084410605360DAE702D90C23AD
:105680002B60D6E7206821188B4201BF19685B6840
:105690000918216063605460CBE738BDB80800206A
:1056A000024B0146186800F025B800BF300000200A
:1056B00070B50F4E0C463168054611B900F052FE28
:1056C00030602146284600F04DFE431C03D14FF0C8
:1056D000FF34204670BDC41C24F00304A042F8D05F
:1056E000211A284600F03EFE0130F2D1EFE700BF5C
:1056F000B40800202DE9F843CD1C25F0030508353A
:105700000C2D38BF0C25002D064601DBA94204D91B
:105710000C2333600020BDE8F883DFF8D48000F06C
:1057200069F8D8F800301C4644BB29463046FFF7DC
:10573000BFFF431C044658D1D8F800402746002F2D
:1057400043D1002C4BD023683946304604EB030983
:1057500000F008FE814542D1216830466D1A294685
:10576000FFF7A6FF01303AD023682B442360D8F816
:1057700000305A6862BBC8F800700FE02268521B04
:1057800020D40B2A17D96119A342256018BF59608C
:10579000636808BFC8F8001062514B60304600F0E3
:1057A0002FF804F10B00231D20F00700C21A1CBFC4
:1057B0001B1AA350AFE76268A3420CBFC8F80020D1
:1057C0005A60EBE723466468AEE73C467F68B6E77D
:1057D0001A465B68A342FBD100235360DEE70C232B
:1057E0003046336000F00CF894E70560D6E700BF60
:1057F000B80800200148FFF782B800BFB0080020B9
:105800000148FFF77DB800BFB008002070B5C66939
:1058100004460D4676B91020FFF742FF0246E061CC
:1058200020B96B21174B1848FFF782F8C0E90166D1
:105830000660C660E669F36883B1E369DB6853F824
:105840002500B8B9012101FA05F6721D2046920023
:1058500000F0ADFD60B1C0E901560EE02122042147
:10586000204600F0A4FDE369F060DB68002BE4D182
:10587000002070BD026843F825200023C0E90333EF
:10588000F7E700BF1E9400084195000870B5C6698F
:1058900005460C4676B91020FFF702FF0246E86184
:1058A00020B98F21084B0948FFF742F8C0E901668B
:1058B0000660C6603CB1EB696268DB6853F8221091
:1058C000216043F8224070BD1E94000841950008F5
:1058D0002DE9F04107460C461E4600200D6901F1F6
:1058E000140CDCF80030013099B202FB01611E0C8F
:1058F0000B0C02FB063389B201EB034185424FEAF0
:1059000013464CF8041BECDC0EB3A368AB4219DC65
:10591000616838460131FFF779FF804628B90246B1
:10592000BA210C4B0C48FFF703F8226904F10C0173
:10593000023292000C3000F025FD21463846FFF778
:10594000A5FF444604EB850301355E6125612046D1
:10595000BDE8F08130950008419500080346B0F598
:10596000803F3ABF030410200020B3F1807F3CBF8A
:105970001B020830B3F1805F3CBF1B010430B3F160
:10598000804F3CBF9B000230002B05DB13F0804FA3
:1059900000F1010008BF202070470368024613F0A1
:1059A00007000BD0D90721D4980749BF5B089B0893
:1059B000012013605CBF02201360704799B209B9DF
:1059C00010201B0CD9B209B908301B0A190704BFF3
:1059D0001B090430990704BF9B080230D90703D480
:1059E0005B0800F1010003D013607047002070478E
:1059F0002020704710B50C460121FFF707FF024633
:105A000028B940F24511044B0448FEF791FF0123E9
:105A10004461036110BD00BF309500084195000846
:105A20002DE9F04F14460A6923690F469A42A2BF36
:105A300023460C461F46D4F810A0D7F81090A36850
:105A400061680AEB0906B34285B0B8BF0131FFF7C0
:105A5000DDFE30B902464FF4B171434B4348FEF7C7
:105A600067FF00F114052B46002205EB860843452D
:105A700021D307F1140104F1140202EB8A0201EBB5
:105A800089030293131B153B23F00303043304F132
:105A90001507BA4238BF04230193029B03918B423E
:105AA0000CD8002E03DD58F8043D002B5AD00661B7
:105AB00005B0BDE8F08F43F8042BD8E7B1F800A09B
:105AC000BAF1000F23D0A9464FF0000C04F1140ED8
:105AD0005EF8047BD9F800301FFA87FB9BB20AFB03
