:020000040800F2
:10000000005000208537000811350008133500081E
:1000100015350008173500081935000800000000E4
:100020000000000000000000000000001B35000878
:100030001D350008000000001F35000821350008AC
:10004000CD370008CD370008CD370008CD37000880
:10005000CD370008CD370008CD370008CD37000870
:10006000CD370008CD370008CD370008CD37000860
:10007000CD370008CD370008CD37000879360008A5
:10008000CD370008CD370008CD370008CD37000840
:10009000CD370008CD370008CD370008CD37000830
:1000A000CD370008CD370008CD370008CD37000820
:1000B000CD370008CD370008CD370008CD37000810
:1000C000CD370008CD370008CD370008CD37000800
:1000D000CD370008CD370008CD370008CD370008F0
:1000E000CD370008CD370008CD37000800000000EC
:1000F0000000000000000000000000000000000000
:0C01000000000000000000005FF808F1A3
:1001100010B5054C237833B9044B13B10448AFF341
:1001200000800123237010BDF001002000000000BA
:100130008464000808B5034B1BB103490348AFF3BF
:10014000008008BD00000000F40100208464000865
:10015000034613F8012B002AFBD1181A0138704707
:1001600081F0004102E000BF83F0004330B54FEA68
:1001700041044FEA430594EA050F08BF90EA020FD5
:100180001FBF54EA000C55EA020C7FEA645C7FEA68
:10019000655C00F0E2804FEA5454D4EB5555B8BF8B
:1001A0006D420CDD2C4480EA020281EA030382EAFC
:1001B000000083EA010180EA020281EA0303362D8E
:1001C00088BF30BD11F0004F4FEA01314FF4801C61
:1001D0004CEA113102D0404261EB410113F0004F73
:1001E0004FEA03334CEA133302D0524263EB43032A
:1001F00094EA050F00F0A780A4F10104D5F1200EC8
:100200000DDB02FA0EFC22FA05F2801841F1000122
:1002100003FA0EF2801843FA05F359410EE0A5F1F6
:1002200020050EF1200E012A03FA0EFC28BF4CF027
:10023000020C43FA05F3C01851EBE37101F00045DD
:1002400007D54FF0000EDCF1000C7EEB00006EEBEA
:100250000101B1F5801F1BD3B1F5001F0CD3490874
:100260005FEA30004FEA3C0C04F101044FEA4452CB
:1002700012F5800F80F09A80BCF1004F08BF5FEA52
:10028000500C50F1000041EB045141EA050130BD32
:100290005FEA4C0C404141EB0101013C28BFB1F544
:1002A000801FE9D291F0000F04BF01460020B1FA8F
:1002B00081F308BF2033A3F10B03B3F120020CDA62
:1002C0000C3208DD02F1140CC2F10C0201FA0CF040
:1002D00021FA02F10CE002F11402D8BFC2F1200CA5
:1002E00001FA02F120FA0CFCDCBF41EA0C0190405B
:1002F000E41AA2BF01EB0451294330BD6FEA0404A4
:100300001F3C1CDA0C340EDC04F11404C4F120028E
:1003100020FA04F001FA02F340EA030021FA04F3A0
:1003200045EA030130BDC4F10C04C4F1200220FAF7
:1003300002F001FA04F340EA0300294630BD21FA35
:1003400004F0294630BD94F0000F83F4801306BFFB
:1003500081F480110134013D4EE77FEA645C18BFEF
:100360007FEA655C29D094EA050F08BF90EA020F86
:1003700005D054EA000C04BF1946104630BD91EA7E
:10038000030F1EBF0021002030BD5FEA545C05D181
:100390004000494128BF41F0004130BD14F58004C0
:1003A0003CBF01F5801130BD01F0004545F0FE4134
:1003B00041F470014FF0000030BD7FEA645C1ABF69
:1003C000194610467FEA655C1CBF0B46024650EAA0
:1003D000013406BF52EA033591EA030F41F40021CC
:1003E00030BD00BF90F0000F04BF0021704730B552
:1003F0004FF4806404F132044FF000054FF0000127
:1004000050E700BF90F0000F04BF0021704730B5E7
:100410004FF4806404F1320410F0004548BF4042BC
:100420004FF000013EE700BF42004FEAE2014FEA11
:1004300031014FEA02701FBF12F07F4393F07F4FEC
:1004400081F06051704732F07F4208BF704793F0EF
:100450007F4F04BF41F40021704730B54FF4607402
:1004600001F0004521F000411CE700BF50EA010205
:1004700008BF704730B54FF000050AE050EA0102AE
:1004800008BF704730B511F0004502D5404261EB1E
:1004900041014FF4806404F132045FEA915C3FF45F
:1004A000D8AE4FF003025FEADC0C18BF03325FEAFC
:1004B000DC0C18BF033202EBDC02C2F1200300FAAD
:1004C00003FC20FA02F001FA03FE40EA0E0021FAD2
:1004D00002F11444BDE600BF70B54FF0FF0C4CF4C0
:1004E000E06C1CEA11541DBF1CEA135594EA0C0F72
:1004F00095EA0C0F00F0DEF82C4481EA030621EAAD
:100500004C5123EA4C5350EA013518BF52EA0335E7
:1005100041F4801143F4801338D0A0FB02CE4FF099
:100520000005E1FB02E506F00042E0FB03E54FF0C9
:100530000006E1FB03569CF0000F18BF4EF0010EC1
:10054000A4F1FF04B6F5007F64F5407404D25FEABD
:100550004E0E6D4146EB060642EAC62141EA555170
:100560004FEAC52040EA5E504FEACE2EB4F1FD0CB2
:1005700088BFBCF5E06F1ED8BEF1004F08BF5FEA30
:10058000500E50F1000041EB045170BD06F00046E2
:1005900046EA010140EA020081EA0301B4EB5C048F
:1005A000C2BFD4EB0C0541EA045170BD41F4801187
:1005B0004FF0000E013C00F3AB8014F1360FDEBFAC
:1005C000002001F0004170BDC4F10004203C35DA88
:1005D0000C341BDC04F11404C4F1200500FA05F30B
:1005E00020FA04F001FA05F240EA020001F00042AC
:1005F00021F0004110EBD37021FA04F642EB060122
:100600005EEA430E08BF20EAD37070BDC4F10C044B
:10061000C4F1200500FA04F320FA05F001FA04F20F
:1006200040EA020001F0004110EBD37041F10001FB
:100630005EEA430E08BF20EAD37070BDC4F1200506
:1006400000FA05F24EEA020E20FA04F301FA05F26E
:1006500043EA020321FA04F001F0004121FA04F216
:1006600020EA020000EBD3705EEA430E08BF20EAE6
:10067000D37070BD94F0000F0FD101F00046400020
:1006800041EB010111F4801F08BF013CF7D041EAA2
:10069000060195F0000F18BF704703F000465200A6
:1006A00043EB030313F4801F08BF013DF7D043EA77
:1006B0000603704794EA0C0F0CEA135518BF95EA2D
:1006C0000C0F0CD050EA410618BF52EA4306D1D1B4
:1006D00081EA030101F000414FF0000070BD50EAD3
:1006E000410606BF1046194652EA430619D094EA5D
:1006F0000C0F02D150EA013613D195EA0C0F05D147
:1007000052EA03361CBF104619460AD181EA03019A
:1007100001F0004141F0FE4141F470014FF0000052
:1007200070BD41F0FE4141F4780170BD70B54FF0ED
:10073000FF0C4CF4E06C1CEA11541DBF1CEA13556D
:1007400094EA0C0F95EA0C0F00F0A7F8A4EB05044F
:1007500081EA030E52EA03354FEA013100F0888046
:100760004FEA03334FF0805545EA131343EA12630F
:100770004FEA022245EA111545EA10654FEA0026C4
:100780000EF000419D4208BF964244F1FD0404F57D
:10079000407402D25B084FEA3202B61A65EB0305D9
:1007A0005B084FEA32024FF480104FF4002CB6EB96
:1007B000020E75EB030E22BFB61A754640EA0C0016
:1007C0005B084FEA3202B6EB020E75EB030E22BF56
:1007D000B61A754640EA5C005B084FEA3202B6EB97
:1007E000020E75EB030E22BFB61A754640EA9C0056
:1007F0005B084FEA3202B6EB020E75EB030E22BF26
:10080000B61A754640EADC0055EA060E18D04FEAE3
:10081000051545EA16754FEA06164FEAC30343EA83
:1008200052734FEAC2025FEA1C1CC0D111F4801F50
:100830000BD141EA00014FF000004FF0004CB6E749
:1008400011F4801F04BF01430020B4F1FD0C88BFE8
:10085000BCF5E06F3FF6AFAEB5EB030C04BFB6EBF3
:10086000020C5FEA500C50F1000041EB045170BDE6
:100870000EF0004E4EEA113114EB5C04C2BFD4EB13
:100880000C0541EA045170BD41F480114FF0000E97
:10089000013C90E645EA060E8DE60CEA135594EA13
:1008A0000C0F08BF95EA0C0F3FF43BAF94EA0C0F16
:1008B0000AD150EA01347FF434AF95EA0C0F7FF48B
:1008C00025AF104619462CE795EA0C0F06D152EADF
:1008D00003353FF4FDAE1046194622E750EA4106C3
:1008E00018BF52EA43067FF4C5AE50EA41047FF4D4
:1008F0000DAF52EA43057FF4EBAE12E74FF0FF3C39
:1009000006E000BF4FF0010C02E000BF4FF0010C09
:100910004DF804CD4FEA410C7FEA6C5C4FEA430C82
:1009200018BF7FEA6C5C1BD001B050EA410C0CBFD1
:1009300052EA430C91EA030F02BF90EA020F002033
:10094000704710F1000F91EA030F58BF994208BF9A
:1009500090422CBFD8176FEAE37040F00100704757
:100960004FEA410C7FEA6C5C02D150EA013C07D1AE
:100970004FEA430C7FEA6C5CD6D152EA033CD3D0F9
:100980005DF8040B704700BF8446104662468C46F3
:100990001946634600E000BF01B5FFF7B7FF002826
:1009A00048BF10F1000F01BD4DF808EDFFF7F4FF4F
:1009B0000CBF012000205DF808FB00BF4DF808EDDA
:1009C000FFF7EAFF34BF012000205DF808FB00BFFD
:1009D0004DF808EDFFF7E0FF94BF012000205DF81F
:1009E00008FB00BF4DF808EDFFF7CEFF94BF0120D4
:1009F00000205DF808FB00BF4DF808EDFFF7C4FFCD
:100A000034BF012000205DF808FB00BF4FEA410C15
:100A10007FEA6C5C02D150EA013C0AD14FEA430CF8
:100A20007FEA6C5C02D152EA033C02D14FF0000035
:100A300070474FF0010070474FEA410212F5001273
:100A400015D211D56FF47873B3EB625212D94FEA15
:100A5000C12343F0004343EA505311F0004F23FAFF
:100A600002F018BF404270474FF00000704750EA54
:100A7000013005D111F0004008BF6FF00040704711
:100A80004FF00000704700BF4A0011D212F500126B
:100A900011D20DD56FF47873B3EB62520ED44FEAD6
:100AA000C12343F0004343EA505323FA02F0704756
:100AB0004FF00000704750EA013002D14FF0FF3094
:100AC00070474FF00000704780F0004002E000BF28
:100AD00081F0004142001FBF5FEA410392EA030F29
:100AE0007FEA226C7FEA236C6AD04FEA1262D2EB73
:100AF0001363C1BFD218414048404140B8BF5B4278
:100B0000192B88BF704710F0004F40F4000020F010
:100B10007F4018BF404211F0004F41F4000121F026
:100B20007F4118BF494292EA030F3FD0A2F1010270
:100B300041FA03FC10EB0C00C3F1200301FA03F1AE
:100B400000F0004302D5494260EB4000B0F5000FD1
:100B500013D3B0F1807F06D340084FEA310102F190
:100B60000102FE2A51D2B1F1004F40EBC25008BF42
:100B700020F0010040EA03007047490040EB00000C
:100B8000013A28BFB0F5000FEDD2B0FA80FCACF10D
:100B9000080CB2EB0C0200FA0CF0AABF00EBC2503A
:100BA00052421843BCBFD0401843704792F0000F28
:100BB00081F4000106BF80F400000132013BB5E77B
:100BC0004FEA41037FEA226C18BF7FEA236C21D0F1
:100BD00092EA030F04D092F0000F08BF0846704756
:100BE00090EA010F1CBF0020704712F07F4F04D124
:100BF000400028BF40F00040704712F100723CBF37
:100C000000F50000704700F0004343F0FE4040F460
:100C1000000070477FEA226216BF08467FEA23631E
:100C20000146420206BF5FEA412390EA010F40F409
:100C3000800070474FF0000304E000BF10F0004355
:100C400048BF40425FEA000C08BF704743F096433C
:100C500001464FF000001CE050EA010208BF704757
:100C60004FF000030AE000BF50EA010208BF7047DE
:100C700011F0004302D5404261EB41015FEA010CF3
:100C800002BF84460146002043F0B64308BFA3F1EB
:100C90008053A3F50003BCFA8CF2083AA3EBC253CD
:100CA00010DB01FA02FC634400FA02FCC2F12002EC
:100CB000BCF1004F20FA02F243EB020008BF20F023
:100CC0000100704702F1200201FA02FCC2F1200289
:100CD00050EA4C0021FA02F243EB020008BF20EA7E
:100CE000DC7070474FF0FF0C1CEAD0521EBF1CEAAC
:100CF000D15392EA0C0F93EA0C0F6FD01A4480EA9A
:100D0000010C400218BF5FEA41211ED04FF0006382
:100D100043EA501043EA5111A0FB01310CF00040AE
:100D2000B1F5000F3EBF490041EAD3715B0040EAD4
:100D3000010062F17F02FD2A1DD8B3F1004F40EBA4
:100D4000C25008BF20F00100704790F0000F0CF077
:100D5000004C08BF49024CEA502040EA51207F3A3B
:100D6000C2BFD2F1FF0340EAC250704740F4000016
:100D70004FF00003013A5DDC12F1190FDCBF00F007
:100D800000407047C2F10002410021FA02F1C2F1B5
:100D9000200200FA02FC5FEA310040F1000053EA51
:100DA0004C0308BF20EADC70704792F0000F00F09F
:100DB000004C02BF400010F4000F013AF9D040EAA5
:100DC0000C0093F0000F01F0004C02BF490011F439
:100DD000000F013BF9D041EA0C018FE70CEAD15337
:100DE00092EA0C0F18BF93EA0C0F0AD030F0004CB7
:100DF00018BF31F0004CD8D180EA010000F000406B
:100E0000704790F0000F17BF90F0004F084691F028
:100E1000000F91F0004F14D092EA0C0F01D1420262
:100E20000FD193EA0C0F03D14B0218BF084608D12B
:100E300080EA010000F0004040F0FE4040F4000075
:100E4000704740F0FE4040F4400070474FF0FF0C08
:100E50001CEAD0521EBF1CEAD15392EA0C0F93EA4F
:100E60000C0F69D0A2EB030280EA010C49024FEAA1
:100E7000402037D04FF0805343EA111143EA10135A
:100E80000CF000408B4238BF5B0042F17D024FF412
:100E9000000C8B4224BF5B1A40EA0C00B3EB510FED
:100EA00024BFA3EB510340EA5C00B3EB910F24BFD6
:100EB000A3EB910340EA9C00B3EBD10F24BFA3EB5B
:100EC000D10340EADC001B0118BF5FEA1C1CE0D123
:100ED000FD2A3FF650AF8B4240EBC25008BF20F0D6
:100EE000010070470CF0004C4CEA50207F32C2BF2A
:100EF000D2F1FF0340EAC250704740F400004FF0C7
:100F00000003013A37E792F0000F00F0004C02BFF7
:100F1000400010F4000F013AF9D040EA0C0093F0C1
:100F2000000F01F0004C02BF490011F4000F013B1B
:100F3000F9D041EA0C0195E70CEAD15392EA0C0F83
:100F400008D142027FF47DAF93EA0C0F7FF470AFBB
:100F5000084676E793EA0C0F04D14B023FF44CAFFE
:100F600008466EE730F0004C18BF31F0004CCAD193
:100F700030F000427FF45CAF31F000437FF43CAFCF
:100F80005FE700BF4FF0FF3C06E000BF4FF0010CF1
:100F900002E000BF4FF0010C4DF804CD4FEA4002D3
:100FA0004FEA41037FEA226C18BF7FEA236C11D01D
:100FB00001B052EA530C18BF90EA010F58BFB2EBD0
:100FC000030088BFC81738BF6FEAE17018BF40F050
:100FD000010070477FEA226C02D15FEA402C05D104
:100FE0007FEA236CE4D15FEA412CE1D05DF8040B89
:100FF000704700BF844608466146FFE70FB5FFF71C
:10100000C9FF002848BF10F1000F0FBD4DF808EDD3
:10101000FFF7F4FF0CBF012000205DF808FB00BFC4
:101020004DF808EDFFF7EAFF34BF012000205DF81E
:1010300008FB00BF4DF808EDFFF7E0FF94BF01206B
:1010400000205DF808FB00BF4DF808EDFFF7D2FF68
:1010500094BF012000205DF808FB00BF4DF808EDAB
:10106000FFF7C8FF34BF012000205DF808FB00BF78
:1010700010B504460E4B1A784FF47A73B3FBF2F3B3
:101080000C4A1068B0FBF3F000F0A6F868B90F2C1A
:1010900001D901200AE0002221464FF0FF3000F084
:1010A00055F8034B5C60002000E0012010BD00BF3C
:1010B000000000202400002008B5074A136843F010
:1010C00010031360032000F02FF80020FFF7D0FF7B
:1010D00002F062F9002008BD00200240034A1168B6
:1010E000034B1B780B441360704700BF0C020020B9
:1010F00000000020014B1868704700BF0C02002060
:1011000038B50446FFF7F6FF0546B4F1FF3F02D0BD
:10111000044B1B781C44FFF7EDFF401BA042FAD3A1
:1011200038BD00BF00000020074AD36823F4E06305
:101130001B041B0C000200F4E060034343F0BF6398
:1011400043F40033D360704700ED00E000B5194B65
:10115000DB68C3F30223C3F1070CBCF1040F28BF03
:101160004FF0040C03F1040EBEF1060F18D9033B37
:101170004FF0FF3E0EFA0CFC21EA0C0199400EFAEA
:1011800003FE22EA0E020A4300280BDB1201D2B250
:1011900000F1604000F5614080F800235DF804FB39
:1011A0000023E5E700F00F001201D2B2024B1A54FF
:1011B000F4E700BF00ED00E014ED00E0002807DBDD
:1011C00000F01F02400901239340024A42F82030F8
:1011D000704700BF00E100E00138B0F1807F0BD222
:1011E0004FF0E0235861054AF02182F823100020D7
:1011F000986107221A6170470120704700ED00E0F6
:1012000030B40124056CAC40C56B6C60046863604D
:101210004368102B05D0036899600368DA6030BC1E
:10122000704703689A600368D960F8E760B310B448
:1012300002460168154B0B441548A0FB03031B092C
:101240009B001364134BD363022382F82130086898
:1012500020F47F5020F03000536894682343D46812
:101260002343146923435469234394692343D46972
:10127000234303430B6000209063012382F8213055
:1012800082F8200010BC704701207047F8FFFDBFB6
:10129000CDCCCCCC0000024038B5044690F82000FC
:1012A000012832D0012084F8200094F82100C0B237
:1012B000012804D0002384F82030022038BD022009
:1012C00084F821000020A0632568286820F0010030
:1012D00028602046FFF794FFE36A5BB12268136839
:1012E00043F00E0313602268136843F00103136098
:1012F0000020E3E72268136823F0040313602268E8
:10130000136843F00A031360EDE70220D6E70000FC
:1013100038B5C36B1A6804682568016C04238B40D8
:10132000134235D015F0040F32D0236813F0200F8C
:1013300003D1236823F0040323600368434A9342E4
:1013400014D01432934218D01432934217D014326E
:10135000934217D01432934217D01432934202D0E2
:101360004FF0806203E04FF4800200E00422384B2B
:101370005A60C36A03B1984738BD4022F7E74FF47B
:101380008062F4E74FF48042F1E74FF48022EEE709
:1013900002238B4013423CD015F0020F39D0236852
:1013A00013F0200F06D1236823F00A0323600123E2
:1013B00080F821300368254A934214D014329342B6
:1013C0001CD0143293421BD0143293421BD01432DF
:1013D00093421BD01432934202D04FF0007203E0CC
:1013E0004FF4001200E00222194B5A60002380F8EB
:1013F0002030836A002BBFD09847BDE72022F3E757
:101400004FF40072F0E74FF40052EDE74FF4003272
:10141000EAE708238B401342AED015F0080FABD09B
:10142000236823F00E032360026CC16B012303FACF
:1014300002F24A60836380F82130002380F8203074
:10144000036B002B98D0984796E700BF0800024036
:101450000000024070B582B00024A446A6E0804D92
:10146000AB4210D007D97F4DAB420CD005F580358B
:10147000AB4208D013E0A5F58015AB4203D005F5CB
:101480007025AB4207D18B68002B58D0012B51D06F
:101490004261082403E0A5F58015AB42F3D0BEF10C
:1014A000FF0F4ED80646BEF1FF0F4CD84FEA8C0214
:1014B00033680F25954023EA050304FA02F213432B
:1014C00033604B6813F0805F6ED0674B9A6942F0CF
:1014D00001029A619B6903F001030193019B4FEAAA
:1014E0009C02951C614B53F825600CF00305AD0080
:1014F0000F23AB4026EA03065D4B984229D003F543
:101500008063984200F08E8003F58063984200F07B
:101510008B8003F58063984219D004231AE0CC68CD
:10152000BDE7CC680434BAE7CC680834B7E7CC68C8
:101530000C34B4E702610824B1E70024AFE70424C7
:10154000ADE7061DAFE7ACF108029200B0E7032358
:1015500000E00023AB4033430232444D45F82230D3
:101560004B6813F4801F61D0424A936843EA0E032C
:1015700093604B6813F4001F5ED03E4AD36843EA81
:101580000E03D3604B6813F4003F5BD0394A5368B5
:1015900043EA0E0353604B6813F4803F58D0354A3A
:1015A000136843EA0E0313600CF1010C0B6833FA65
:1015B0000CF253D0012202FA0CF203EA020E32EAD4
:1015C0000303F1D14B68122B3FF649AF122B3FF6C4
:1015D00066AF01A555F823F0871400081F15000811
:1015E000291500083B1500089F1400089F140008E7
:1015F0009F1400089F1400089F1400089F140008FF
:101600009F1400089F1400089F1400089F140008EE
:101610009F1400089F1400089F1400082315000859
:101620002F150008012395E7022393E7114A9368D9
:1016300023EA0E0393609CE70E4AD36823EA0E0365
:10164000D3609FE70B4A536823EA0E035360A2E777
:10165000084A136823EA0E031360A5E702B070BDC1
:101660000000221000003110001002400000014074
:1016700000080140000401408368194201D00120A4
:101680007047002070470AB1016170470904016189
:101690007047C36801EA030221EA030141EA0241FB
:1016A0000161704703685A6912F4806F01D100200C
:1016B00070476FF480625A6100230363202280F830
:1016C0003D2080F83E30026C42F00402026480F853
:1016D0003C30012070472DE9F04106460C46174684
:1016E00098463BE0FFF706FD069BC01A404502D82E
:1016F000B8F1000F32D1012D18D033689B6924EA6C
:1017000003039BB2B3FA83F35B099F4226D1002304
:101710003363202286F83D2086F83E30326C42F05A
:101720002002326486F83C30012027E033685B6990
:1017300024EA03039BB2B3FA83F35B09E5E733685A
:101740005B6924EA030C1FFA8CFCBCFA8CFC4FEAA0
:101750005C1C674511D1B8F1FF3FC3D1C4F3074505
:10176000012DECD033689B6924EA030C1FFA8CFC32
:10177000BCFA8CFC4FEA5C1CEBE70020BDE8F08172
:101780002DE9F84305460E469046994653E01A68FF
:1017900042F400721A602B686FF480625A61002371
:1017A0002B63202285F83D2085F83E302A6C42F0DC
:1017B00004022A6485F83C3001204AE0FFF79AFCD5
:1017C000A0EB0900404502D8B8F1000F33D1012F3A
:1017D00017D02B689B6926EA03039BB2003B18BF16
:1017E000012343B300232B63202285F83D2085F895
:1017F0003E302A6C42F020022A6485F83C300120F9
:1018000027E02B685B6926EA03039BB2003B18BF05
:101810000123E6E72B689C6926EA0404A4B2003C95
:1018200018BF0124A4B12B685A6912F4806FAED19D
:10183000B8F1FF3FC2D1C6F30747012FEAD12B68A9
:101840005C6926EA0404A4B2003C18BF0124E9E75D
:101850000020BDE8F8830000F0B583B004460D46D3
:1018600016461F46C36A082B0DD0012B0BD013F56B
:10187000803F08D0036B122B0AD10268136843F42F
:101880008073136004E02268136843F4807313606C
:101890000097334600224FF001112046FFF71BFF4F
:1018A00080B92369B3F5804F16D1236805F0FE0592
:1018B0001D613B46324613492046FFF761FFF8B9E8
:1018C00003B0F0BD23681B6813F4807F02D04FF48F
:1018D000007323640320F3E7EB11226803F006038F
:1018E00043F0F00313613B46324607492046FFF7B9
:1018F00047FF18B92368EDB21D61DAE70120DFE781
:101900000120DDE7020001000800010070B5044677
:101910000D46164623685B6913F0800F21D12046DF
:10192000FFF7C0FEF8B9B5F1FF3FF3D0FFF7E2FBD8
:10193000801BA84201D8002DECD123685B6913F00D
:10194000800FE7D100232363202284F83D2084F810
:101950003E30226C42F02002226484F83C300120A8
:1019600000E0002070BD0120FCE770B504460D4684
:10197000164623685B6913F0040F21D12046FFF758
:1019800091FEF8B9B5F1FF3FF3D0FFF7B3FB801B31
:10199000A84201D8002DECD123685B6913F0040F35
:1019A000E7D100232363202284F83D2084F83E30D1
:1019B000226C42F02002226484F83C30012000E0D6
:1019C000002070BD0120FCE7002800F0CC8070B53D
:1019D000044690F83D30002B77D0242384F83D3026
:1019E0002268136823F0010313602268136843F42C
:1019F000004313602268136823F40043136000F06F
:101A000049FD62685A4B9A4264D85A4B98428CBF3F
:101A100000230123002B40F0A8805749A1FB00318F
:101A20008B0C25686A6822F03F0242EA91426A60A4
:101A300021680A6A22F03F0266684D4DAE424FD8D7
:101A4000013313430B622168CA6922F44F4222F02A
:101A5000FF026568464B9D424CD8431E6D00B3FBA8
:101A6000F5F3013340F6FC70034278D0C3F30B0367
:101A70001A43CA6121680B6823F0C003E269206A37
:101A8000024313430B6021688B6823F4034323F064
:101A9000FF032269E068024313438B602168CB682F
:101AA00023F0FF036269A06902431343CB602268FD
:101AB000136843F00103136000202064202384F89E
:101AC0003D30206384F83E0070BD80F83C3001F06A
:101AD00085FC82E7294B98428CBF0023012399E7BC
:101AE0004FF4967505FB03F3254DA5FB03539B09A6
:101AF0000133A6E7A668BEB9431E05EB450CB3FB50
:101B0000FCF30133C3F30B03B3FA83F35B0943BB69
:101B1000C6B9431E05EB4505B3FBF5F30133C3F32B
:101B20000B0343F40043A3E7431E05EB850C0CEBCA
:101B30008C0CB3FBFCF30133C3F30B03B3FA83F355
:101B40005B09E4E7431E05EB850505EB8505B3FB63
:101B5000F5F30133C3F30B0343F4404388E7042355
:101B600086E7012384E7012070470120ACE700BF2E
:101B7000A08601007F841E0083DE1B43FF083D001A
:101B8000D34D62102DE9F04385B004460F469146CF
:101B900098460C9EFFF7AEFA054694F83D00C0B299
:101BA000202804D00227384605B0BDE8F083009510
:101BB000192301224F492046FFF78DFD002840F0F0
:101BC000928094F83C30012B00F08F80012384F840
:101BD0003C3023681A6812F0010F03D11A6842F0F2
:101BE00001021A602268136823F400631360212342
:101BF00084F83D30102384F83E3000232364C4F879
:101C00002490A4F82A80638D23853B4BE3622B4606
:101C1000324639462046FFF71FFE0746002866D1A8
:101C20000023039323685A6903929B690393039BE0
:101C300011E0236C042B01D00127B4E7226813685C
:101C400043F400731360F7E72A4631462046FFF756
:101C50008CFE00282ED1238D002B36D02A4631460B
:101C60002046FFF753FE0028E3D1626A236812780A
:101C70001A61606A431C6362618D89B2013989B25D
:101C80006185238D013B9BB223852268516911F048
:101C9000040FD9D0002BD7D043781361636A013386
:101CA0006362638D9BB2013B9BB26385238D013BD5
:101CB0002385C9E7236C042B01D0012773E7226831
:101CC000136843F400731360F7E72268136843F462
:101CD00000731360202384F83D30002384F83E30E5
:101CE00084F83C305FE702275DE702275BE70127C6
:101CF00059E700BF020010000000FFFF2DE9F0438C
:101D000085B00446884691461D46FFF7F3F994F8DE
:101D10003D30DBB2202B03D0022005B0BDE8F083BC
:101D2000064600901923012257492046FFF7D3FCAD
:101D3000002840F0A08094F83C30012B00F09D80FA
:101D4000012384F83C3023681A6812F0010F03D194
:101D50001A6842F001021A602268136823F40063D3
:101D60001360242384F83D3000272764474BE36247
:101D700040E023681B6813F4807F02D04FF40073A7
:101D800023640320C9E7A02384F83D302268536907
:101D9000C3F340035269C2F3802294F83DC05FFA56
:101DA0008CFCBCF1A00F09D043B93AB9FFF7A2F9F6
:101DB000801BA842E7D8002DE8D1E4E7202384F86F
:101DC0003D3023685A6912F0020F31D11A6842F48B
:101DD00000721A6023686FF480625A6100961923BA
:101DE000012229492046FFF776FC002849D1013716
:101DF0004F4538D22268136843F48073136000960D
:101E00002B4600224FF001112046FFF764FC00280A
:101E1000AFD1236808F0FE021A61FFF76BF906469E
:101E200022685369C3F340035269C2F38022B4E7C6
:101E30001A6842F400721A600023039323685A69F7
:101E400003929B690393039B0096192301220E4979
:101E50002046FFF740FC90B9202384F83D30002352
:101E600084F83C3059E7202384F83D30002384F87F
:101E70003C30012051E702204FE702204DE70120CE
:101E80004BE7012049E700BF020010000000FFFF00
:101E900082B0084B1B68084AA2FB03235B0A00FBC5
:101EA00003F3019300BF019B5A1E0192002BF9D14D
:101EB00002B0704724000020D34D6210002800F0CB
:101EC000F18170B582B00446036813F0010F2CD085
:101ED000994B5B6803F00C03042B1DD0964B5B6899
:101EE00003F00C03082B12D06368B3F5803F41D098
:101EF000002B55D103F1804303F504331A6822F413
:101F000080321A601A6822F480221A6037E08A4B05
:101F10005B6813F4803FE7D0874B1B6813F4003FE6
:101F200003D06368002B00F0BF81236813F0020F19
:101F300075D0814B5B6813F00C0F5FD07E4B5B68F4
:101F400003F00C03082B54D02369002B00F08A8087
:101F50007A4B01221A60FFF7CDF80546764B1B68D5
:101F600013F0020F75D1FFF7C5F8401B0228F5D911
:101F700003209EE1704A136843F480331360636862
:101F800043B3FFF7B7F805466B4B1B6813F4003FEC
:101F9000CBD1FFF7AFF8401B6428F5D9032088E1C7
:101FA000B3F5A02F09D0644B1A6822F480321A606E
:101FB0001A6822F480221A60E1E703F18043A3F556
:101FC0003C331A6842F480221A601A6842F4803264
:101FD0001A60D4E7FFF78EF80546574B1B6813F4D9
:101FE000003FA2D0FFF786F8401B6428F5D90320F4
:101FF0005FE1514B5B6813F4803FA5D14E4B1B68EA
:1020000013F0020F03D02369012B40F04F814A4A9D
:10201000136823F0F803616943EAC103136023687E
:1020200013F0080F33D0A369002B5CD0434B01227F
:10203000C3F88024FFF75EF805463F4B5B6A13F058
:10204000020F21D1FFF756F8401B0228F5D90320D3
:102050002FE1394A136823F0F803616943EAC103A9
:102060001360DCE7354B00221A60FFF743F80546A2
:10207000314B1B6813F0020FD1D0FFF73BF8401B28
:102080000228F5D9032014E10120FFF701FF23689E
:1020900013F0040F00F09680274BDB6913F0805F8C
:1020A00034D1254BDA6942F08052DA61DB6903F002
:1020B00080530193019B0125214B1B6813F4807F02
:1020C00026D0E368012B3DD0002B53D103F1804390
:1020D00003F504331A6A22F001021A621A6A22F026
:1020E00004021A6233E0154B0022C3F88024FFF784
:1020F00001F80546104B5B6A13F0020FC7D0FEF7DC
:10210000F9FF401B0228F5D90320D2E00025D3E7D0
:102110000B4A136843F480731360FEF7EBFF064627
:10212000074B1B6813F4807FCBD1FEF7E3FF801BC6
:102130006428F5D90320BCE00010024000004242B0
:10214000007000405F4A136A43F001031362E368C2
:1021500033B3FEF7CFFF06465A4B1B6A13F0020F4C
:102160002FD1FEF7C7FF801B41F288339842F3D985
:1021700003209EE0052B09D0524B1A6A22F001027F
:102180001A621A6A22F004021A62E0E74D4B1A6AD8
:1021900042F004021A621A6A42F001021A62D6E799
:1021A000FEF7A8FF0646474B1B6A13F0020F08D044
:1021B000FEF7A0FF801B41F288339842F3D9032039
:1021C00077E0E5B9E369002B72D03E4A526802F02D
:1021D0000C02082A56D0022B17D03B4B00221A665D
:1021E000FEF788FF0446374B1B6813F0007F47D08B
:1021F000FEF780FF001B0228F5D9032059E0314A81
:10220000D36923F08053D361DCE72F4B00221A6699
:10221000FEF770FF05462B4B1B6813F0007F06D0BE
:10222000FEF768FF401B0228F5D9032041E0236A2E
:10223000B3F5803F1AD023494B6823F47413226A04
:10224000606A024313434B601F4B01221A66FEF77C
:1022500051FF04461B4B1B6813F0007F0ED1FEF7A5
:1022600049FF001B0228F5D9032022E0154A5368D4
:1022700023F40033A1680B435360DCE7002018E02F
:10228000002016E0012B16D00E4B5B6803F4803162
:10229000226A914211D103F47013626A93420ED103
:1022A000002006E001207047012002E0012000E04C
:1022B000002002B070BD0120FBE70120F9E70120FA
:1022C000F7E700BF00100240000042420F4B5B687E
:1022D00003F00C02082A01D00D487047C3F3834273
:1022E0000C49885C13F4803F0CD0084B5A68C2F349
:1022F00040420B4613441B7C054A02FB00F0B0FB36
:10230000F3F07047044B03FB00F0704700100240ED
:1023100000127A00A064000800093D00002800F0C7
:10232000A08070B50D460446524B1B6803F00703AE
:102330008B420BD24F4A136823F007030B43136001
:10234000136803F007038B4240F08D80236813F07D
:10235000020F17D013F0040F04D0474A536843F418
:10236000E0635360236813F0080F04D0424A5368B7
:1023700043F460535360404A536823F0F003A1686C
:102380000B435360236813F0010F31D06368012BB6
:1023900020D0022B25D0384A126812F0020F64D0E8
:1023A00035494A6822F0030213434B60FEF7A2FE50
:1023B0000646314B5B6803F00C036268B3EB820F97
:1023C00016D0FEF797FE801B41F288339842F0D971
:1023D000032045E0284A126812F4003FE0D10120B2
:1023E0003EE0254A126812F0007FD9D1012037E083
:1023F000204B1B6803F00703AB420AD91D4A136840
:1024000023F007032B431360136803F00703AB4269
:102410002DD1236813F0040F06D0174A536823F414
:10242000E063E1680B435360236813F0080F07D0A3
:10243000114A536823F46053216943EAC10353608E
:10244000FFF744FF0C4B5B68C3F303130B4AD35CE9
:10245000D8400B4B18600B4B1868FEF709FE0020A4
:1024600070BD012070470120FAE70120F8E7012044
:10247000F6E700BF0020024000100240C88C0008B0
:102480002400002004000020014B1868704700BFA2
:102490002400002008B5FFF7F7FF044B5B68C3F387
:1024A0000223034AD35CD84008BD00BF001002409D
:1024B000D88C000808B5FFF7E7FF044B5B68C3F34F
:1024C000C223034AD35CD84008BD00BF00100240BD
:1024D000D88C0008026802F10C0353E8003F23F097
:1024E000C0030C3242E800310029F3D1202380F8E8
:1024F00041307047026802F10C0353E8003F23F4B7
:1025000090730C3242E800310029F3D1026802F1E5
:10251000140353E8003F23F00103143242E8003172
:102520000029F3D1036B012B05D0202380F8423022
:10253000002303637047026802F10C0353E8003F75
:1025400023F010030C3242E800310029F3D1ECE70C
:1025500010B504460268136923F44053C1680B4365
:10256000136183680269134342691A430168CB68A7
:1025700023F4B05323F00C031343CB600268536978
:1025800023F4407381690B4353610268134B9A42F1
:1025900020D0FFF77FFF024602EB820202EB8202AD
:1025A00063689B00B2FBF3F20D48A0FB02314909BE
:1025B000642303FB11231B013233A0FB03035B09DC
:1025C00003F0F00202EB011203F00F032168134441
:1025D0008B6010BDFFF76EFF0246DDE7003801405B
:1025E0001F85EB512DE9F84305460F4616469946DF
:1025F000DDF820802B681C6837EA04040CBF012436
:102600000024B4422DD1B8F1FF3FF3D0B8F1000F50
:1026100005D0FEF76FFDA0EB09004045EAD92A6816
:1026200002F10C0353E8003F23F4D0730C3242E86C
:1026300000310029F3D12A6802F1140353E8003F66
:1026400023F00103143242E800310029F3D12023A2
:1026500085F8413085F84230002385F8403003206A
:1026600000E00020BDE8F88360B310B5044690F8A0
:10267000413013B3242384F841302268D36823F413
:102680000053D3602046FFF763FF2268136923F4E9
:10269000904313612268536923F02A03536122682F
:1026A000D36843F40053D36000206064202384F88F
:1026B000413084F84230606310BD80F8403000F053
:1026C000C9FED7E7012070472DE9F04182B01E46D0
:1026D00090F84130DBB2202B4BD104460D4690469A
:1026E00000294AD00AB9012044E000234364212391
:1026F00080F84130FEF7FEFC0746A4F82480A4F8D9
:102700002680A368B3F5805F02D04FF000080FE089
:102710002369FBB14FF000080AE038F8023B226859
:10272000C3F308035360E28C92B2013A92B2E2849E
:10273000E38C9BB28BB100963B4600228021204661
:10274000FFF750FFD8B9002DE7D015F8012B23680B
:102750005A60E8E7A8460025EAE700963B460022D3
:1027600040212046FFF73EFF58B9202384F841302E
:1027700000E0022002B0BDE8F0810120FAE703206A
:10278000F8E70320F6E77047704710B5446A2368FE
:102790005A6994F84130DBB2212B10D023685A6972
:1027A00002F0400294F84230DBB2222B11D0636C6D
:1027B00043F0100363642046FFF7E6FF10BD02F00C
:1027C0008002002AEAD00023E3842046FFF782FE3D
:1027D000E4E7002AEBD00023E3852046FFF78AFEDA
:1027E000E5E7704708B5406A01234363036B012B9B
:1027F00002D0FFF7C8FF08BD818D4908FFF7F1FF40
:10280000F9E708B50346406A1B681B6813F0200F00
:102810002BD10023C385026802F10C0353E8003F6B
:1028200023F480730C3242E800310029F3D10268AE
:1028300002F1140353E8003F23F00103143242E88D
:1028400000310029F3D1026802F1140353E8003F7C
:1028500023F04003143242E800310029F3D1202351
:1028600080F84230036B012B07D000234363036BD6
:10287000012B0FD000F05AFB08BD026802F10C03D7
:1028800053E8003F23F010030C3242E800310029E6
:10289000F3D1EAE7818DFFF7A4FFEDE730B583B010
:1028A000044613468162828500254564222280F811
:1028B0004220C26B1F489062E26B1F48D062E26BFD
:1028C0001E481063E26B556320680A46011DE06BE9
:1028D000FEF7E2FC019523681A6801925B68019398
:1028E000019B23695BB1226802F10C0353E8003FAE
:1028F00043F480730C3242E800310029F3D122689E
:1029000002F1140353E8003F43F00103143242E89C
:1029100000310029F3D1226802F1140353E8003F8B
:1029200043F04003143242E800310029F3D1002083
:1029300003B030BD03280008E52700088B270008F6
:1029400008B590F84230DBB2202B08D149B10AB962
:10295000012008BD00230363FFF7A0FFF9E7022071
:10296000F7E70120F5E7000010B58449FEF7BAF952
:10297000FDF75AFD0022824BFDF7D8FEFEF784F8E2
:1029800084B20A20FEF7BCFB14F0010F00F08D802A
:10299000012211467B48FEF776FE14F0020F00F08C
:1029A0008A80012202217748FEF76DFE14F0040FA1
:1029B00000F08780012204217248FEF764FE14F0C3
:1029C000080F00F08480012208216E48FEF75BFEAC
:1029D00014F0100F00F08180012210216948FEF7E9
:1029E00052FE14F0200F7ED0012220216548FEF710
:1029F0004AFE14F0400F7CD0012240216148FEF7CE
:102A000042FE14F0800F7AD0012280215D48FEF74B
:102A10003AFE14F4807F78D001224FF48071594837
:102A2000FEF731FE14F4007F76D001224FF40071DE
:102A30005448FEF728FE14F4806F74D001224FF43E
:102A400080615048FEF71FFE14F4006F72D001221F
:102A50004FF400614B48FEF716FE14F4805F70D00F
:102A600001224FF480514748FEF70DFE14F4005F39
:102A70006ED001224FF480614348FEF704FE14F447
:102A8000804F6CD001224FF400613F48FEF7FBFD00
:102A900014F4004F6AD100224FF400413948FEF788
:102AA000F2FD0A20FEF72CFB10BD00220121354863
:102AB000FEF7E9FD71E7002202213248FEF7E3FD4F
:102AC00074E7002204212F48FEF7DDFD77E700229E
:102AD00008212C48FEF7D7FD7AE70022102129486B
:102AE000FEF7D1FD7DE7002220212648FEF7CBFD31
:102AF0007FE7002240212348FEF7C5FD81E7002241
:102B000080212048FEF7BFFD83E700224FF480714B
:102B10001C48FEF7B8FD85E700224FF40071194804
:102B2000FEF7B1FD87E700224FF480611548FEF7FC
:102B3000AAFD89E700224FF400611248FEF7A3FDC9
:102B40008BE700224FF480510E48FEF79CFD8DE785
:102B500000224FF480610C48FEF795FD8FE70022BC
:102B60004FF400610848FEF78EFD91E701224FF413
:102B700000410448FEF787FD93E700BF00FF7F4751
:102B80000080764000080140000C014010B504466A
:102B90000021FEF745FA48B908492046FEF754FAE5
:102BA00048B106492046FDF793FF05E0034920465A
:102BB000FDF790FF00E0204610BD00BF0000B443C9
:102BC0002DE9F04389B000240494059406940794F9
:102BD000334B9A6942F010029A619A6902F010022E
:102BE0000092009A9A6942F020029A619A6902F072
:102BF00020020192019A9A6942F004029A619A694C
:102C000002F004020292029A9A6942F008029A6162
:102C10009B6903F008030393039BDFF88890224627
:102C20004FF4C0414846FEF72EFDDFF87C80224677
:102C300049F6FF714046FEF726FD1C4E22464FF432
:102C400040613046FEF71FFD4FF4C0430493012559
:102C5000059506940227079704A94846FEF7FAFB54
:102C600049F6FF73049305950694079704A9404617
:102C7000FEF7F0FB4FF44063049305950694079725
:102C800004A93046FEF7E6FB182304930594069545
:102C900004A93046FEF7DEFB09B0BDE8F08300BFB3
:102CA000001002400010014000080140000C0140EB
:102CB00008B50948094B0360094B43600023836052
:102CC000C3604FF48042026143618361C361036268
:102CD000FEF77AFE08BD00BF10020020005400403D
:102CE000801A060000B583B00A4B5A6942F001020F
:102CF0005A615B6903F001030193019B00221146B5
:102D00000F20FEF723FA0F20FEF758FA03B05DF804
:102D100004FB00BF0010024008B50948094B436599
:102D20004FF4E13383650023C365036643660C22D9
:102D30008266C36603675430FFF796FC08BD00BF88
:102D4000100200200038014030B591B02822002147
:102D500006A801F0AEFA00240194029403940494AE
:102D60000594012206924FF4803307930A920225BC
:102D70000D950E934FF4E0130F9306A8FFF79EF8FE
:102D80000F230193029503944FF4806304930594F9
:102D9000294601A8FFF7C2FA11B030BD00000000BB
:102DA000F0B58BB0FEF788F9FFF7CEFFFFF708FF0D
:102DB000FFF77EFFFFF796FFFFF7AEFF6420FEF7F9
:102DC0009FF94F480A2200F19C015430FFF7B8FDEB
:102DD00000F02EFA00210F2000F068F9494C012282
:102DE0002146494800F0B6F900F0FEF90A213520E5
:102DF00000F05CF901222146444800F0ABF900F0F4
:102E0000F3F91921002000F051F901222146404830
:102E100000F0A0F900F0E8F92921002000F046F9BF
:102E2000012221463B4800F095F900F0DDF9002031
:102E3000FFF79AFD19213C2000F038F9304BD3F808
:102E4000AC00FDF7F1FA04460D4602460B46324946
:102E500002A801F0CBF92B4F0122394602A800F05D
:102E600079F900F0C1F929213C2000F01FF922A3D3
:102E7000D3E9002320462946FDF72EFB0022274BED
:102E8000FDF754FCFDF700FE86B23246244902A845
:102E900001F0ACF90122394602A800F05BF900F01C
:102EA000A3F96420FEF72CF94FF480411D48FEF78A
:102EB000E3FB0028BED0009622462B461A4902A802
:102EC00001F094F90E4C6423C2B202A904F154003B
:102ED000FFF7FAFB4FF07E51D4F8AC00FDF7F8FD98
:102EE000FFF742FD00224FF480410E48FEF7CBFB76
:102EF000A0E700BFAFF3008000000000E0FFEF405C
:102F00001002002018000020E08C0008F08C00085F
:102F1000F88C0008008D00080C8D000800807640B9
:102F2000148D0008001001401C8D000802683C4B05
:102F30009A4200D0704700233A4A82F8A6300AE04D
:102F4000384A92F8A610D01890F89C00414082F8B8
:102F5000A6100133DBB2082BF2D9324B93F8A6202E
:102F600093F8A5309A42E5D110B52E4B93F89C30DA
:102F7000012B0AD02B4B93F89F30022B1ED0294BEC
:102F800093F8A230032B32D010BD274B1B78002BB7
:102F9000F0D101224FF480412448FEF774FB214C0C
:102FA00094F89D0094F89E3043EA0020FDF746FE19
:102FB0001F49FDF74BFFC4F8AC00DBE71A4B1B7849
:102FC000012BDCD101224FF480411848FEF75BFB56
:102FD000144C94F8A00094F8A13043EA0020FDF7C7
:102FE0002DFE1349FDF732FFC4F8AC00C7E70E4BC6
:102FF0001B78022BC8D101224FF480410B48FEF709
:1030000042FB084C94F8A30094F8A43043EA002053
:10301000FDF714FE0649FDF719FFC4F8AC00B3E74D
:103020000038014010020020200000200010014064
:103030000000C8427047000008B530B900214FF4C5
:103040008062034801F035F908BDFF21F7E700BFB2
:103050000C0300207F2817D83F2915D8124B1B7965
:1030600013B1B2FA82F25209012A0ED0CB0800EB5A
:10307000C31001F0070101238B40DB435BB20A4A16
:103080000244117A0B4013727047CB0800EBC31057
:1030900001F00701012303FA01F1034B03441A7AFB
:1030A0000A431A72704700BF04030020014B1880C6
:1030B00059807047040300202DE9F8439046244BC3
:1030C0001B880A7813447F2B3EDC81460D46204B3B
:1030D0005B884A7813443F2B38DC002620E01C4BE9
:1030E0001888598831442044B8FA88F2520989B2C4
:1030F00080B2FFF7AFFF01342B78A3420FD907FA54
:1031000004F313F4004FEAD0114B18885988314466
:103110002044424689B280B2FFF79CFFEBE70136BC
:103120006A78B24208D96968A9F1200302FB0363F7
:1031300031F813700024DFE72B78054A11880B441F
:1031400013804846BDE8F8830020FBE70020F9E73C
:103150000403002070B504460E46154600E0013415
:10316000207838B12A463146FFF7A6FF034620787B
:103170008342F4D070BD000000B5C3B08DF80810D4
:103180004FF0000C09E00CF1010E12F80C100DF1DB
:10319000080C0CF80E105FFA8EFC1FFA8CFE9E4590
:1031A000F1D301330A2200929BB202AA01460348DE
:1031B000FEF7E8FC43B05DF804FB00BF10020020FE
:1031C00000B585B08DF80C108DF80D200A23009302
:1031D000022303AA01460348FEF7D4FC05B05DF8BC
:1031E00004FB00BF1002002010B500241AE0A4F177
:1031F0005002D2B200217820FFF7E2FF00221146F0
:103200007820FFF7DDFF102200217820FFF7D8FF9C
:103210008023064A02EBC41240217820FFF7ACFF5E
:103220000134E4B2072CE2D910BD00BF0C0300202A
:1032300008B544F62063012278215548FEF75EFD6B
:10324000002840F0A38040F6C41300E0013B002BAF
:10325000FCD1AE2200217820FFF7B2FF202200210E
:103260007820FFF7ADFF102200217820FFF7A8FF9C
:10327000B02200217820FFF7A3FFC8220021782088
:10328000FFF79EFF002211467820FFF799FF1022DA
:1032900000217820FFF794FF402200217820FFF7DB
:1032A0008FFF812200217820FFF78AFFFF22002173
:1032B0007820FFF785FFA12200217820FFF780FF0B
:1032C000A62200217820FFF77BFFA822002178208A
:1032D000FFF776FF3F2200217820FFF771FFA4223D
:1032E00000217820FFF76CFFD32200217820FFF720
:1032F00067FF002211467820FFF762FFD5220021E8
:103300007820FFF75DFFF02200217820FFF758FFBB
:10331000D92200217820FFF753FF222200217820B4
:10332000FFF74EFFDA2200217820FFF749FF122233
:1033300000217820FFF744FFDB2200217820FFF7EF
:103340003FFF202200217820FFF73AFF8D22002145
:103350007820FFF735FF142200217820FFF730FF97
:10336000AF2200217820FFF72BFF2E2200217820AA
:10337000FFF726FF0020FFF75FFEFFF735FF054B45
:1033800000221A805A800120587108BD0020FCE7F5
:10339000100200200403002082B00E4B9A6942F014
:1033A00001029A619A6902F001020092009ADA69B8
:1033B00042F08052DA61DB6903F080530193019B94
:1033C000054A536823F0E06343F00073536002B092
:1033D000704700BF001002400000014010B586B0E9
:1033E000002302930393049305930268154B9A42BA
:1033F00001D006B010BD144CA36943F00803A361CB
:10340000A36903F008030093009B4FF440730293F9
:10341000122303930323059302A90C48FEF71AF81D
:103420000B4A536843F0E06343F002035360E369DF
:1034300043F40013E361E36903F400130193019B78
:10344000D7E700BF0054004000100240000C0140CC
:1034500000000140F0B587B000230293039304936A
:1034600005930268254B9A4201D007B0F0BD04468F
:1034700003F558439A6942F480429A619A6902F4CA
:1034800080420092009A9A6942F008029A619B6910
:1034900003F008030193019B40230293022303934B
:1034A00003230593164F02A93846FDF7D3FF802664
:1034B000029600250395049502A93846FDF7CAFF38
:1034C000104A536843F0E06343F0040353600E482E
:1034D0000E4B036045608560C66005614561202331
:1034E00083614FF44053C361FDF7A0FE18B9064B4A
:1034F000E3635C62B9E7FFF79DFDF8E70038014040
:10350000000C014000000140C002002058000240B1
:103510007047FEE7FEE7FEE7FEE77047704770473B
:1035200038B54E4B1C6808214D48FEF7A5F8E8B9A0
:103530004C4A1368013313604A4B9A684A4981FB2D
:103540000231D317C3EB6113642101FB132333B999
:10355000444B1B68DBB9434B5B68002B4DD1414AA0
:10356000936801339360FDF7B9FD38BD10213C48E5
:10357000FEF782F830B93B4B5A6801325A6000229C
:103580001A60D9E7374B00225A601A60D4E7374DEA
:1035900001224FF480412846FEF775F84FF40051A0
:1035A0002846FEF776F82F4B1B68B3F5C87F0BDA79
:1035B0004FF07E512046FDF78DFA04462046FFF776
:1035C000E5FA264B1860C6E7B3F57A7F06DA4FF0C6
:1035D00080412046FDF77EFA0446EFE7B3F5FA6F27
:1035E00005DA23492046FDF775FA0446E6E7214946
:1035F0002046FDF76FFA0446E0E71C4D01224FF428
:1036000080412846FEF73FF84FF400512846FEF768
:1036100040F8144B5B68B3F5C87F09DA4FF07E5170
:103620002046FDF755FAFFF7B1FA0C4B186096E704
:10363000B3F57A7F05DA4FF080412046FDF748FA6E
:10364000F1E7B3F5FA6F04DA09492046FDF740FACD
:10365000E9E708492046FDF73BFAE4E7BC02002011
:10366000000C01400C0700201F85EB5100100140A9
:103670000000A0400000204108B50248FDF748FEC8
:1036800008BD00BFC00200200120704708B500F04F
:1036900063FE162303604FF0FF3008BD08B54FF0FE
:1036A000FF31FFF7F3FFFEE770B50C461646002525
:1036B00006E0AFF30080214601F8010B01350C460E
:1036C000B542F6DB304670BD70B50C461646002597
:1036D00004E014F8010BAFF300800135B542F8DBCC
:1036E000304670BD08B503460B4A126842B10A4A1B
:1036F000106803446A46934206D8074A136008BD1F
:10370000054A06491160F2E700F026FE0C2303602B
:103710004FF0FF30F3E700BF1807002070080020CB
:103720004FF0FF3070474FF400534B60002070475C
:1037300001207047002070470F4B1A6842F00102C9
:103740001A6059680D4A0A405A601A6822F0847259
:1037500022F480321A601A6822F480221A605A68B1
:1037600022F4FE025A604FF41F029A60044B4FF09D
:1037700000629A60704700BF001002400000FFF82E
:1037800000ED00E0002103E00B4B5B584350043197
:103790000A480B4B42189A42F6D30A4A02E0002329
:1037A00042F8043B084B9A42F9D3FFF7C5FF00F0FB
:1037B000D9FDFFF7F5FA70479C9000080000002043
:1037C000F0010020F00100206C080020FEE7002B33
:1037D0002DE9F0471F46BBBF03F100431F460023FE
:1037E0002D2388B01446129A109D1370149BDDF897
:1037F0004CA023F02008B8F1460F05D0B8F1450FD2
:1038000000D10135022300E0032307AA049206AA8F
:10381000CDE902A2CDE9003522463B4600F060FE2C
:10382000B8F1470F064602D1119BDB0722D5B8F14C
:10383000460F06EB050910D13378302B0AD1002250
:10384000002320463946FDF7AFF818B9C5F1010548
:10385000CAF80050DAF800309944002200232046CC
:103860003946FDF7A1F808B1CDF81C903022079B2E
:103870004B4507D33046079B159A9B1B136008B036
:10388000BDE8F087591C07911A70F0E70346F7B5B9
:10389000002903F8022BB6BF2D222B224942092909
:1038A00042702ADD0DF1070217460A2691FBF6F554
:1038B000944606FB151430340CF8014C0C46632C6E
:1038C000294602F1FF32F1DC3031ACF1020402F89A
:1038D000011C2246411CBA420AD30DF10902A2EB97
:1038E0000C02BC4288BF00221344181A03B0F0BD7A
:1038F00012F8015B01F8015FEDE73023303183708E
:10390000C170031DF1E700002DE9F04F91B00C46A6
:10391000DDF8688016461F46054600F0D3FC0368B4
:1039200018460993FCF714FC00230E93D8F80030D6
:103930000A90073323F0070303F1080294F8189064
:10394000D4F800B0C8F80020D3E900A85246434696
:10395000C4E9122328F000430B934FF0FF32504686
:103960009C4B0B99FDF752F870BB4FF0FF3250465D
:10397000984B0B99FDF72CF830BB002200235046E2
:103980004146FDF71BF810B12D2384F84330924ACD
:10399000924BB9F1470F94BF9046984603234FF0DE
:1039A000000A23612BF00403236033462146284696
:1039B00000970FAA00F0D6F9013040F090804FF048
:1039C000FF3011B0BDE8F08F5246434650464146A5
:1039D000FDF71CF848B1B8F1000FB8BF2D23804A9D
:1039E000B8BF84F843307F4BD3E7636809F0DF0149
:1039F0005A1C42D106236360002206920EAACDE92A
:103A000004920DAA4BF4806303920DF13302CDE9C9
:103A100001322360636852460093284643460B9167
:103A2000FFF7D5FE0B99804647290D9908D1C81C90
:103A300002DB6368994240DDA9F102095FFA89F966
:103A4000B9F1650F1FD84A46013904F150000D91B4
:103A5000FFF71CFF0E9A82461318012A236102DC2D
:103A60002268D20701D5013323619DF83330002B42
:103A70009BD02D2384F8433097E74729BCD1002BF6
:103A8000BAD10123B7E7B9F1660F18D100296368ED
:103A90000BDD216113B92268D00702D501330B4435
:103AA00023614FF0000AA165DFE713B92268D2074E
:103AB00001D50233F4E70123F2E74FF067090E9BCB
:103AC000994205DB23682161D807EAD54B1CE7E75B
:103AD0000029CCBF0122C1F102021344E0E72368B0
:103AE0005A0507D42369424631462846B847013073
:103AF0002BD164E7B9F1650F40F2DD80D4E9120102
:103B000000220023FCF750FF002833D00123314668
:103B10002846354AB84701303FF451AFDDE90D235F
:103B20009A4202DB2368D8070FD5DDE90923314625
:103B30002846B84701303FF442AF4FF0000804F187
:103B40001A090E9B013B434509DC23689B0700F1E2
:103B50000481E0680F9B9842B8BF184631E7012303
:103B60004A4631462846B84701303FF428AF08F1AD
:103B70000108E6E70D9B002B38DC0123314628467F
:103B8000194AB84701303FF41AAFDDE90D3213434B
:103B900002D12368D907D8D5DDE909233146284663
:103BA000B84701303FF40BAF4FF0000904F11A0A97
:103BB0000D9B5B424B4501DC0E9B94E70123524673
:103BC00031462846B84701303FF4F9AE09F1010902
:103BD000EEE700BFFFFFEF7F268D00082A8D00086B
:103BE0002E8D0008328D0008368D00080E9AA36DC8
:103BF0009A42A8BF1A46002A914637DC4FF0000BC4
:103C000029EAE97904F11A02D4F858A0AAEB0903C9
:103C10005B4533DCDDE90D239A423BDB2368DA07A1
:103C200038D4DDE90D32A2EB0309A2EB0A0291457B
:103C3000A8BF9146B9F1000F34DC4FF0000829EA23
:103C4000E97904F11A0ADDE90D239B1AA3EB0903B4
:103C500043457FF77AAF0123524631462846B8479D
:103C600001303FF4ACAE08F10108ECE713463146F1
:103C700042462846B8470130C0D1A0E6012331466C
:103C800028460B92B84701303FF499AE0B9A0BF1DE
:103C9000010BB9E73146DDE909232846B847013071
:103CA000BFD18CE64B463146284608EB0A02B8479E
:103CB0000130C2D183E60E9A012A01DCDB0739D537
:103CC0000123424631462846B84701303FF477AEDB
:103CD000DDE9092331462846B84701303FF46FAE8D
:103CE000D4E9120100220023DDF83890FCF75CFED5
:103CF000D8B909F1FF3308F1010231462846B84727
:103D000001300ED15BE601234A4631462846B847CA
:103D100001303FF454AE08F101080E9B013B4345CE
:103D2000F1DC534604F15002DEE64FF0000804F1E6
:103D30001A09F2E701234246DFE701234A463146EA
:103D40002846B84701303FF43AAE08F10108E3686D
:103D50000F995B1A4345F0DCFBE64FF0000804F1D5
:103D60001909F4E72DE9F047164699468A680B6968
:103D700007469342B8BF1346336091F843200C4680
:103D8000DDF820800AB1013333602368990642BF11
:103D9000336802333360256815F0060506D104F157
:103DA000190AE36832689B1AAB422BDC94F8432073
:103DB000131E226818BF0123920630D449463846A4
:103DC00004F14302C047013023D02368226903F085
:103DD0000603042B14BF002533684FF0000608BF0C
:103DE000E56804F11A0408BFED1A54F8123C08BF44
:103DF00025EAE5759342C4BF9B1AED18B5421AD166
:103E0000002008E00123524649463846C0470130A9
:103E100003D14FF0FF30BDE8F0870135C1E7302016
:103E2000E11881F843005A1C94F8451022440233EB
:103E300082F84310C2E70123224649463846C0476C
:103E40000130E6D00136D9E72DE9FF470F7E9146D4
:103E5000782F80460C469A460C9D01F1430207D804
:103E6000622F0AD8002F00F0D580582F00F0C180B3
:103E700004F1420584F842703AE0A7F16303152B80
:103E8000F6D801A151F823F0E13E0008F53E000804
:103E9000713E0008713E0008713E0008713E000846
:103EA000F53E0008713E0008713E0008713E0008B2
:103EB000713E0008FB3F0008213F0008B53F0008A5
:103EC000713E0008713E00081D400008713E000868
:103ED000213F0008713E0008713E0008BD3F000808
:103EE0002B681A1D1B682A6004F1420584F84230D1
:103EF0000123A0E020682B68070603F10401296074
:103F000001D51E6803E04606FBD5B3F90060002E1C
:103F100003DA2D23764284F843300A23594812E00D
:103F20002B682068191D2960050601D51E6802E06E
:103F30004106FBD51E886F2F0CBF08230A2351486A
:103F4000002184F843106568002DA8BF2168A56092
:103F5000A4BF21F0040121600EB9002D4BD01546FD
:103F6000B6FBF3F103FB1167C75D05F8017D37462A
:103F7000BB420E46F4D9082B0BD12368DE0708D5C7
:103F8000236961689942DEBF302305F8013C05F1E1
:103F9000FF35521B22614B4621464046CDF800A01A
:103FA00003AAFFF7DFFE01304AD14FF0FF3004B023
:103FB000BDE8F087236843F0200323607827324868
:103FC00084F84570236829681F0651F8046B02D4F1
:103FD0005F0648BFB6B2DF0748BF43F02003296041
:103FE00048BF23601EB9236823F0200323601023F9
:103FF000A6E72448E4E71546BDE72B682668181DA8
:104000006169286035061B6801D5196002E07006F9
:10401000FBD51980002315462361BCE72B680021DE
:104020001A1D2A601D686268284600F0C1F908B1AF
:10403000401B606063682361002384F84330AAE773
:104040002A46494640462369D0470130ADD023680F
:104050009B0713D4E068039B9842B8BF1846A6E7B5
:104060000123324649464046D04701309DD00135B4
:10407000E36803995B1AAB42F2DCEBE7002504F13D
:104080001906F5E7388D0008498D0008002310B5A2
:104090000446C0E90033C0E904338360818143668C
:1040A000C2818361194608225C3000F002F9054B99
:1040B00024626362044BA362044BE362044B2363F8
:1040C00010BD00BF2D4200084F4200088742000883
:1040D000AB420008024A0349034800F069B800BF38
:1040E00028000020455D00083400002041680C4B8A
:1040F00010B59942044601D001F024FEA168094B95
:10410000994202D0204601F01DFEE168064B99421B
:1041100004D02046BDE8104001F014BE10BD00BF21
:104120002007002088070020F007002010B50B4B67
:104130000B4C0C4A20461A6004210022FFF7A6FF10
:1041400004F1680001220921FFF7A0FF04F1D0006B
:104150000222BDE810401221FFF798BF5808002046
:1041600020070020D5400008014800F01FB900BF1B
:1041700061080020014800F01AB900BF6108002062
:1041800010B50446FFF7F0FF236A1BB1BDE81040ED
:10419000FFF7F0BF044B2362044B1B68002BF5D1E3
:1041A000FFF7C4FFF2E700BFED4000085808002009
:1041B0002DE9F8430746884614460026D4E90195C0
:1041C000B9F1010905D52468002CF7D13046BDE8C6
:1041D000F883AB89012B07D9B5F90E30013303D031
:1041E00029463846C04706436835E9E70EB46FF004
:1041F000004100B59CB01DAB029006900791049160
:104200000848094953F8042B0591006802A9019355
:1042100001F018FC0022029B1A701CB05DF804EB40
:1042200003B07047800000200802FFFF10B50C4665
:10423000B1F90E1000F06CF80028ABBF636DA389D4
:104240001B1823F48053ACBF6365A38110BD2DE917
:10425000F0411F468B890546DB050C46164605D501
:1042600002230022B1F90E1000F040F8A389324673
:1042700023F48053A38128463B46B4F90E10BDE8D1
:10428000F04100F057B810B50C46B1F90E1000F02F
:104290002DF8431CA38915BF606523F4805343F4B4
:1042A0008053A38118BFA38110BDB1F90E1000F097
:1042B0000DB803460244934200D1704703F8011B36
:1042C000F9E70000004870477401002038B500236A
:1042D000054D044608462B60FFF722FA431C02D125
:1042E0002B6803B1236038BD5C08002038B5044654
:1042F000084611460022054D2A601A46FFF71AFAB1
:10430000431C02D12B6803B1236038BD5C08002038
:1043100038B50446084611460022054D2A601A4663
:10432000FFF7C2F9431C02D12B6803B1236038BDEB
:104330005C08002038B50446084611460022054DA9
:104340002A601A46FFF7C0F9431C02D12B6803B15B
:10435000236038BD5C080020014B1868704700BF1F
:104360008000002070B500260C4D0D4C641BA4107D
:10437000A64209D102F086F800260A4D0A4C641BB9
:10438000A410A64205D170BD55F8043B98470136EC
:10439000EEE755F8043B98470136F2E794900008A1
:1043A0009490000894900008989000087047704717
:1043B000034610B5C9B202449342184601D1002009
:1043C00003E0047801338C42F6D110BD2DE9F74F9C
:1043D00003690C690746A3427FDB013C00F1140529
:1043E00001F1140805EB8403019358F8243055F8C3
:1043F000242001339A42B2FBF3F64FEA840B08EB18
:10440000840931D34FF0000E4046AC46F24650F8D6
:10441000042B93B206FB03E34FEA124E1A0C9BB235
:1044200006FB0E22AAEB0303DCF800A04FEA124EB3
:104430001FFA8AFA5344DCF800A092B2C2EB1A4287
:1044400002EB23429BB243EA024381454FEA224AF0
:104450004CF8043BDBD255F80B302BB9019B043BE5
:104460009D421A462DD33C61384601F093F900284D
:1044700023DB29460020013658F8042BD1F800C070
:1044800093B2C31A120C1FFA8CF00344C2EB1C4205
:1044900002EB23429BB243EA0243C1454FEA22406A
:1044A00041F8043BE8D255F8242005EB840322B9F7
:1044B000043B9D421A460AD33C61304603B0BDE836
:1044C000F08F1268043B002ACDD1013CC8E7126886
:1044D000043B002AF0D1013CEBE70020EEE70000AE
:1044E0002DE9F04F16461F46C46999B00546CDE93F
:1044F0000467DDF8948074B9102000F01DFE0246B8
:10450000E86120B9EF21AC4BAC4801F07BFCC0E97D
:1045100001440460C460EB69196851B15A68012311
:1045200093404A608B60284600F0FAFE0022EB6957
:104530001A603B1EAFBF0023012223F00043059306
:10454000A8BFC8F80030DDF814909D4BB8BFC8F87C
:10455000002033EA090319D142F20F73249A136041
:10456000C9F31303334300F08985269B53B9954B58
:1045700023E0954B03930833269A1360039819B0F0
:10458000BDE8F08F8F4B03930333F5E7DDE9043487
:10459000CDE90C34DDE90C0100220023FCF704FA1C
:1045A000804660B10123249A1360269B002B00F003
:1045B0006285864B269A1360013B0393DEE716ABB8
:1045C000019317AB00932846DDE90C2301F08AF92B
:1045D000C9F30A548246002C7ED0DDE90C010D9B04
:1045E000A4F2FF34C3F3130343F07F5343F44013A7
:1045F000CDF84C8019460022754BFBF7B5FD68A33A
:10460000D3E90023FBF768FF67A3D3E90023FBF797
:10461000ADFD064620460F46FBF7F4FE64A3D3E942
:104620000023FBF759FF02460B4630463946FBF79D
:104630009DFD06460F46FCF7FFF900228346002346
:1046400030463946FCF7BAF948B15846FBF7DAFE6E
:1046500032463B46FCF7A8F908B90BF1FF3BBBF12A
:10466000160F57D8DDE90C015A4B03EBCB03D3E906
:104670000023FCF7A3F900284ED000230BF1FF3BE9
:104680000F93169B1B1B5A1E46BFC3F10109002343
:104690004FF00009099248BF0993BBF1000F3DDBC1
:1046A000099BCDF838B05B44099300230A93229B01
:1046B000092B67D8052BC4BF043B2293229BC8BF9C
:1046C0000024A3F10203D8BF0124032B00F286804B
:1046D000DFE803F02C393756DDE916431C4404F2B9
:1046E0003243202BC1BFC3F1400309FA03F904F29E
:1046F000124326FA03F3D6BFC3F1200349EA0300AD
:1047000006FA03F0FBF76EFE0122A1F1F873013CFB
:1047100013926FE70123B3E70F90B2E7CBF10003E9
:104720000A930023A9EB0B090E93C0E700230B9318
:10473000239B002B55DC01231A46069308932392F2
:104740000BE00123F3E700230B93239B5B440693C9
:104750000133012B0893B8BF012300210422E8692B
:1047600002F114069E4240D94160284600F098FDAF
:10477000039000283CD1024640F2AF11164BC3E62D
:104780000123E1E7012400230B9422934FF0FF3330
:104790000022069308931223D1E700BFAFF30080F5
:1047A00061436F63A787D23FB3C8608B288AC63F37
:1047B000FB799F501344D33F678D00087E8D00081E
:1047C0000000F07F638D00085A8D0008378D0008C7
:1047D0000000F83F688E0008D68D000801230B9377
:1047E000D4E7239B06930893B7E701315200B7E75C
:1047F000EB69039A1A60089B0E2B00F2A880002C2C
:1048000000F0A580BBF1000F34DD9A4B0BF00F02D6
:1048100003EBC2031BF4807FD3E90034CDE91034ED
:104820004FEA2B1416D0DDE90C01934B0327D3E993
:104830000823FBF77BFFCDE9040104F00F048E4E43
:1048400054B9DDE91023DDE90401FBF76FFFCDE981
:10485000040129E00227F2E7E10708D5DDE91001AC
:10486000D6E90023FBF738FECDE9100101376410CB
:104870000836E5E700F0A580DDE90C01CBF1000486
:104880007C4B04F00F0203EBC203D3E90023FBF7D8
:1048900023FE02270023CDE90401774E2411002CCA
:1048A00040F08480002BD2D1DDE90434CDE910340E
:1048B0000F9B002B00F08780DDE9100100226F4B79
:1048C000FCF77CF800287ED0089B002B7BD0069B51
:1048D000002B38DDDDE910010022694BFBF7FCFD00
:1048E000CDE90401069C0BF1FF3801373846FBF790
:1048F00089FDDDE90423FBF7EFFD0022614BFBF7A7
:1049000035FCA1F15076CDE910011196002C5DD156
:10491000DDE9040100225C4BFBF726FC02460B4656
:10492000CDE904233346109AFCF766F8002840F0DE
:104930009582DDE90401109A06F10043FCF73EF888
:10494000002840F08982DDE90C34CDE90434179B5E
:10495000002BC0F25181BBF10E0F00F34D81454B8E
:1049600003EBCB03D3E90034CDE90634239B002BC2
:1049700080F2DA80089B002B00F3D68040F06B8237
:10498000DDE906010022404BFBF7A6FDDDE904232B
:10499000FCF728F8089C2646002840F04182312385
:1049A000039F0BF1010B07F8013B3DE2E20705D540
:1049B000D6E90023FBF790FD012301376410083688
:1049C0006DE7022770E7D846089C8FE70399294BCB
:1049D000214412910B9903EBC403DDE9106753E9FD
:1049E0000223002954D000202849FBF79FFE3B46B4
:1049F0003246FBF7B9FBCDE91001039FDDE9040165
:104A0000FCF71AF80446FBF7FDFC02460B46DDE90D
:104A10000401FBF7A9FB02460B463034CDE9042321
:104A2000DDE9102307F8014BFBF7C8FF002873D11D
:104A3000DDE9042300201149FBF796FBDDE9102393
:104A4000FBF7BCFF002840F0B680129B9F423FF46A
:104A50007AAFDDE910010022094BFBF73DFD002292
:104A6000CDE91001DDE90401054BFBF735FDCDE98A
:104A70000401C3E7688E0008408E00080000F03F84
:104A80000000244000001C40000014400000E03FF3
:104A900030463946FBF720FD129BCDE91001039CFF
:104AA0001493DDE90401FBF7C7FF1590FBF7AAFC9F
:104AB00002460B46DDE90401FBF756FB159B064653
:104AC000303304F8013B129B0F469C424FF000022A
:104AD00024D1DDE91001AF4BFBF748FB02460B4642
:104AE00030463946FBF788FF002863D1DDE9102303
:104AF0000020A849FBF738FB02460B4630463946F2
:104B0000FBF75CFF00283FF41EAF149F7B1E14933D
:104B100017F8013C302BF8D0C3463BE09E4BFBF727
:104B2000DBFCCDE90401BCE7039FDDE90489DDE995
:104B3000062340464946FBF7F9FDFBF77DFF044697
:104B4000FBF760FCDDE90623FBF7C6FC02460B46DB
:104B500040464946FBF708FB04F1300607F8016BB5
:104B6000039EDDF820C0BE1BB44502460B4636D17D
:104B7000FBF7FCFADDE9062380468946FBF73CFF9C
:104B800058BBDDE9062340464946FBF70DFF08B157
:104B9000E30722D45146284600F0C2FB0023249AA2
:104BA0003B700BF101031360269B002B3FF4E6AC36
:104BB0001F60E3E427463B461F4613F8012D392AC0
:104BC00007D1039A9A42F7D13022039908F10108DC
:104BD0000A701A7801321A709EE7D846EBE7002275
:104BE0006D4BFBF779FC0022002380468946FBF7DA
:104BF000DBFE00289BD0CDE70B9A002A00F0C48092
:104C0000229A012A00F3A880139A002A00F0A080BB
:104C100003F233434F460A9C099A01211A4428465D
:104C20009944099200F032FC06465FB1099B002BC3
:104C300008DDBB42A8BF3B46099AA9EB0309FF1A4E
:104C4000D31A09930A9BF3B10B9B002B00F0A080B1
:104C5000002C10DD31462246284600F0D5FC524695
:104C600001460646284600F027FC80465146284665
:104C700000F056FBC2460A9B1A1B04D05146284638
:104C800000F0C2FC82460121284600F0FFFB0E9B8B
:104C90000446002B40F382801A460146284600F065
:104CA000B3FC229B0446012B7BDD4FF000082369F7
:104CB00004EB8303186900F09BFBC0F12000099B03
:104CC000184410F01F0000F09280C0F12003042B64
:104CD00040F38580099BC0F11C00034481440744D4
:104CE0000993B9F1000F05DD51464A46284600F008
:104CF000E5FC8246099B002B05DD21461A46284625
:104D000000F0DCFC04460F9B002B72D0214650467D
:104D100000F040FD00286CDA002351460A222846A4
:104D200000F020FB0B9B82460BF1FF3B002B00F0B9
:104D3000AC81002331460A22284600F013FB069B73
:104D40000646002B00F39380229B022B59DC8EE059
:104D5000169BC3F136035DE7089B5C1E0A9BA342CA
:104D6000BFBF0A9B0E9AE31AD218A8BF1C1B089B50
:104D7000BEBF0A940E920024002BB5BFA9EB030717
:104D80004F460023089B47E74F460A9C0B9E4CE783
:104D90000A9A73E70000E03F00002440229B012BA9
:104DA00018DC049BB3B9059BC3F3130393B9059BAC
:104DB00023F000431B0D1B057BB14FF00108099B3D
:104DC00009F10109013309930E9B002B7FF46FAFAA
:104DD000012074E74FF00008F6E79846F4E780D02A
:104DE000099A1C331A4499441F44099279E70346EF
:104DF000F6E7089B002B34DC229B022B31DD089B5D
:104E00000693069B63B921460522284600F0AAFABC
:104E100001460446504600F0BDFC00283FF7BFADF8
:104E2000239B039F6FEA030B4FF00008214628469F
:104E300000F076FA002E3FF4ADAEB8F1000F05D0C9
:104E4000B04503D04146284600F06AFA314628466C
:104E500000F066FA9EE600242646E1E7C3462646B1
:104E60009DE50B9B002B00F0C880089B0693002F4C
:104E700005DD31463A46284600F020FC0646B8F1EA
:104E8000000F5BD02846716800F00AFA074628B97F
:104E9000024640F2EF21814BFFF736BB326906F143
:104EA0000C01023292000C3000F09EFF01223946C4
:104EB000284600F003FCB0460646039B039A0133E4
:104EC0000893069B13440B93049B03F001030A937E
:104ED000089B2146013B50460493FFF777FA414671
:104EE000069000F13009504600F054FC324609901B
:104EF0002146284600F06AFCC268074602BB01460C
:104F0000504600F047FC0246394628460C9200F015
:104F100007FA229B0C9A089F43EA02010A9B194355
:104F200010D1B9F1390F29D0099B002B02DD069B66
:104F300003F13109049B83F8009077E73046BAE724
:104F40000122E1E7099B002B04DB22990B430A991C
:104F50000B4320D1002AEDDD51460122284600F006
:104F6000ADFB2146824600F015FC002803DCE1D1B0
:104F700019F0010FDED0B9F1390FD8D13923049AD5
:104F800013703B461F4617F8012C013B392A6BD0A2
:104F900001321A704AE7002A07DDB9F1390FEDD066
:104FA000049A09F10103137040E7089B0B9A03F878
:104FB000019C934242D0514600230A22284600F029
:104FC000D1F9B04582464FF000034FF00A02414646
:104FD000284607D100F0C6F980460646089B0133F3
:104FE000089375E700F0BEF93146804600230A2297
:104FF000284600F0B7F90646F0E7089B0693039FA2
:1050000021465046FFF7E2F9039B00F1300907F80B
:10501000019BFA1A069B934207DD514600230A22A0
:10502000284600F09FF98246EAE7069B4FF0000809
:10503000002BCCBF1F460127039B1F445146012272
:10504000284600F03BFB2146824600F0A3FB0028E7
:1050500097DC02D119F0010F93D13B461F4613F89C
:10506000012D302AFAD0E1E6039A9A428AD13123FF
:105070000BF1010B97E70A4BFFF79FBA269B002B1A
:105080007FF477AA074BFFF798BA069B002BB6DC94
:10509000229B022B3FF7B5AEB1E700BFD68D0008CB
:1050A000368D00085A8D000838B50546002940D0D5
:1050B00051F8043C0C1F002BB8BFE41800F0E4F8D2
:1050C0001C4A136833B9636014602846BDE8384051
:1050D00000F0E0B8A34208D9206821188B4201BF34
:1050E00019685B6809182160EDE71A465B680BB127
:1050F000A342FAD911685018A0420BD1206801448C
:10510000501883421160E0D118685B680844106051
:105110005360DAE702D90C232B60D6E72068211808
:105120008B4201BF19685B68091821606360546095
:10513000CBE738BD64080020024B0146186800F038
:1051400023B800BF8000002070B50E4E0C463168B9
:10515000054611B900F038FE30602146284600F0BF
:1051600033FE431C0AD0C41C24F00304A04207D021
:10517000211A284600F028FE013001D14FF0FF34FB
:10518000204670BD680800202DE9F843CD1C25F0AD
:10519000030508350C2D38BF0C25002D074601DB13
:1051A000A94205D90C2300263B603046BDE8F883B0
:1051B000DFF8D08000F068F8D8F800301C465CBBFF
:1051C00029463846FFF7C0FF431C044655D1D8F89E
:1051D00000402646002E45D1002C48D02368314699
:1051E000384604EB030900F0EFFD81453FD121680B
:1051F00038466D1A2946FFF7A7FF013037D02368DC
:105200002B442360D8F80030002B38D05A68A242D3
:105210002BD100225A600FE02268521B1FD40B2AA8
:1052200017D96119A342256018BF5960636808BF88
:10523000C8F8001062514B60384604F10B0600F0CC
:1052400029F826F00706231DF21AAED09B1BA350A7
:10525000ABE7A3426268DDD1C8F80020ECE7234643
:105260006468ACE734467668B4E71346CCE70C23B1
:1052700038463B6000F00EF897E72560DCE75B609E
:10528000FFDE00BF640800200148FFF78FB800BFB1
:10529000600800200148FFF78AB800BF60080020BE
:1052A00070B5C66904460D4676B91020FFF744FF75
:1052B0000246E06120B96B21174B184800F0A2FDAF
:1052C000C0E901660660C660E669F36883B1E36918
:1052D000DB6853F82500B8B9012101FA05F6721D03
:1052E0002046920000F0ACFD60B1C0E901560EE02E
:1052F00021220421204600F0A3FDE369F060DB6871
:10530000002BE4D1002070BD026843F82520002363
:10531000C0E90333F7E700BF678D0008E78D000899
:1053200070B5C66905460C4676B91020FFF704FF34
:105330000246E86120B98F21084B094800F062FD60
:10534000C0E901660660C6603CB1EB696268DB6873
:1053500053F82210216043F8224070BD678D000889
:10536000E78D00082DE9F04107460C461E46002057
:105370000D6901F1140CDCF80030013099B202FB28
:1053800001611E0C0B0C02FB063389B201EB0341D9
:1053900085424FEA13464CF8041BECDC0EB3A368BD
:1053A000AB4219DC616838460131FFF779FF80466E
:1053B00028B90246BA210C4B0C4800F023FD2269A3
:1053C00004F10C01023292000C3000F00DFD214678
:1053D0003846FFF7A5FF444604EB850301355E61BF
:1053E00025612046BDE8F081D68D0008E78D0008D4
:1053F000020C12040346CAB90304102013F07F4FB5
:1054000004BF1B02083013F0704F04BF1B010430AF
:1054100013F0404F04BF9B000230002B05DB13F05C
:10542000804F00F1010008BF202070470020E5E711
:105430000368024613F007000BD0D90721D4980760
:1054400049BF5B089B08012013605CBF022013600A
:10545000704799B209B910201B0CD9B209B90830AC
:105460001B0A190704BF1B090430990704BF9B08D6
:105470000230D90703D45B0800F1010003D01360A8
:1054800070470020704720207047000010B50C4680
:105490000121FFF705FF024628B940F24511044BF0
:1054A000044800F0AFFC01234461036110BD00BF5C
:1054B000D68D0008E78D00082DE9F04F91460A6966
:1054C000D9F810300C469A42BEBF0B464C4699465E
:1054D0002769D9F810A0A368616807EB0A06B342F0
:1054E00085B0B8BF0131FFF7DBFE30B902464FF49B
:1054F000B171434B434800F085FC00F114052B4685
:10550000002205EB8608434521D304F1140303EB85
:10551000870709F1140303EB8A0202923A1B153A3A
:1055200022F00302043204F115018F4238BF042235
:105530000192029A03939A420CD8002E03DD58F888
:10554000043D002B5AD0066105B0BDE8F08F43F84A
:10555000042BD8E7B3F800A0BAF1000F23D0A94676
:105560004FF0000C04F1140E5EF8042BD9F8001073
:105570001FFA82FB89B20AFB0B116144D9F800C003
:10558000120C4FEA1C4C0AFB02C202EB114289B218
:1055900041EA024177454FEA124C49F8041BE3D82F
:1055A000019A45F802C0039A0433B2F80290B9F1A7
:1055B000000F21D0AE464FF0000A296804F1140C08
:1055C000BCF800B0BEF8022089B209FB0B2252449D
:1055D00041EA02414EF8041B5CF8041B4FEA114AF1
:1055E000BEF80010674509FB0A1101EB12414FEAB2
:1055F000114AE5D8019AA95004359AE7013E9CE783
:10560000D68D0008E78D00082DE9F843154612F005
:10561000030206460F4607D0254C013A002354F8F2
:105620002220FFF79FFE0746AD103DD0F4697CB9FC
:105630001020FFF781FD0246F06128B940F2B31156
:105640001C4B1D4800F0DEFBC0E901440460C4604F
:10565000D6F81C80D8F808404CB940F27121304689
:10566000FFF714FF00230446C8F8080003604FF05A
:105670000009EB070AD5394622463046FFF71CFFE2
:10568000804639463046FFF74BFE47466D100BD03B
:10569000206838B9224621463046FFF70DFF2060CA
:1056A000C0F800900446E4E73846BDE8F88300BF40
:1056B000308F0008678D0008E78D00082DE9F0475E
:1056C0000C46074691462369496803EB6218A368B4
:1056D0004FEA621A08F10106B3420BDB3846FFF7C6
:1056E000DFFD054648B902464FF4EF71274B2848C5
:1056F00000F088FB01315B00EEE7002300F11401AC
:1057000000F110021846534533DB20692AEAEA7A91
:1057100004F1140319F01F0901EB8A0103EB800C5B
:105720002BD08A460022C9F1200E186800FA09F031
:1057300010434AF8040B53F8042B9C4522FA0EF24E
:10574000F3D8ACEB0403153B23F00303043304F15B
:105750001500844538BF0423CA500AB108F1020677
:10576000013E384621462E61FFF7DAFD2846BDE8A6
:10577000F08742F8040F0133C5E7043953F8042BCE
:105780009C4541F8042FF9D8EAE700BFD68D000800
:10579000E78D000803460A69006930B5801A0DD10B
:1057A0001433143103EB820401EB820154F8045DDD
:1057B00051F8042D954202D004D3012030BDA342FC
:1057C000F4D3FBE74FF0FF30F8E700002DE9F84F86
:1057D0000D460746114628461446FFF7DBFF061E16
:1057E00011D131463846FFF75BFD024628B940F239
:1057F00037213A4B3A4800F005FB0123C0E9043653
:105800001046BDE8F88FA4BF23462C463846616891
:10581000A6BF1D4600260126FFF742FD024618B925
:1058200040F245212D4BE5E702F11408C2464FF046
:10583000000C2769C6602E6904F1140005F11409F3
:1058400000EB870E09EB8606103454F804BF59F8B4
:10585000043B1FFA8BF161441FFA83FC1B0CA1EB84
:105860000C01C3EB1B4303EB214389B241EA034123
:105870004E454FEA234C4AF8041BE6D8731B153BF0
:1058800023F0030315350433AE4238BF0423184414
:1058900043441E46054675450ED30EF10301091A11
:1058A00021F003010338864538BF00210B4453F82B
:1058B000041D89B11761A3E755F8048B1FFA88F11D
:1058C00061440C1404EB184489B241EA04414FEAE4
:1058D000244C46F8041BDEE7013FE8E7D68D0008BC
:1058E000E78D0008F7B5012117461C46089EFFF713
:1058F000D7FC054630B9024640F20F31224B23480F
:1059000000F080FAC4F31303C4F30A5424BB002F3D
:10591000019326D068460097FFF78AFDDDE9001263
:10592000E8B1C0F1200302FA03F30B43C2406B61FC
:105930000192019B002B14BF02210121AB6129615F
:10594000BCB1A4F2334404443460C0F13500099B77
:105950001860284603B0F0BD43F48013D7E76961AF
:10596000E7E701A8FFF764FD019B01216B6120308F
:10597000E5E7A0F2324005EB810330601869FFF7DC
:1059800037FDC0EB4110E2E7D68D0008E78D000837
:105990002DE9F0471F468E688246BE420C4690466F
:1059A0000B682CD88A8912F4906F26D06569096932
:1059B00005EB4505A3EB010905EBD5757B1C4B44B5
:1059C0006D109D4238BF1D46530527D52946FFF768
:1059D000DBFB064660B34A46216900F005FAA3895D
:1059E00023F4906343F08003A38126614E44266034
:1059F0003E466561A5EB0905A560BE4200D93E465D
:105A000032464146206800F0C5F90020A3689B1B80
:105A1000A360236833442360BDE8F0872A4600F082
:105A200035FA06460028E0D150462169FFF73CFBD5
:105A30000C23CAF80030A3894FF0FF3043F0400335
:105A4000A381E9E72DE9F04F98468B8907461B06AD
:105A50000D4614469DB00ED50B6963B94021FFF782
:105A600093FB2860286120B90C233B604FF0FF3086
:105A7000D0E040236B610023099320238DF8293067
:105A800030234FF00109CDF80C80DFF8A0818DF8AC
:105A90002A3023469A4613F8012B0AB1252AF9D158
:105AA000BAEB040B0BD05B46224629463846FFF77B
:105AB0006FFF013000F0A980099A5A4409929AF8C0
:105AC0000030002B00F0A18000234FF0FF32CDE921
:105AD00005230AF1010A049307938DF853301A93B2
